{
  "_format": "hh-sol-artifact-1",
  "contractName": "MyEpicGame",
  "sourceName": "contracts/MyEpicGame.sol",
  "abi": [
    {
      "inputs": [
        {
          "internalType": "string[]",
          "name": "characterNames",
          "type": "string[]"
        },
        {
          "internalType": "string[]",
          "name": "characterImageURIs",
          "type": "string[]"
        },
        {
          "internalType": "uint256[]",
          "name": "characterHp",
          "type": "uint256[]"
        },
        {
          "internalType": "uint256[]",
          "name": "characterAttackDamage",
          "type": "uint256[]"
        },
        {
          "internalType": "string",
          "name": "bossName",
          "type": "string"
        },
        {
          "internalType": "string",
          "name": "bossImageURI",
          "type": "string"
        },
        {
          "internalType": "uint256",
          "name": "bossHp",
          "type": "uint256"
        },
        {
          "internalType": "uint256",
          "name": "bossAttackDamage",
          "type": "uint256"
        }
      ],
      "stateMutability": "nonpayable",
      "type": "constructor"
    },
    {
      "anonymous": false,
      "inputs": [
        {
          "indexed": true,
          "internalType": "address",
          "name": "owner",
          "type": "address"
        },
        {
          "indexed": true,
          "internalType": "address",
          "name": "approved",
          "type": "address"
        },
        {
          "indexed": true,
          "internalType": "uint256",
          "name": "tokenId",
          "type": "uint256"
        }
      ],
      "name": "Approval",
      "type": "event"
    },
    {
      "anonymous": false,
      "inputs": [
        {
          "indexed": true,
          "internalType": "address",
          "name": "owner",
          "type": "address"
        },
        {
          "indexed": true,
          "internalType": "address",
          "name": "operator",
          "type": "address"
        },
        {
          "indexed": false,
          "internalType": "bool",
          "name": "approved",
          "type": "bool"
        }
      ],
      "name": "ApprovalForAll",
      "type": "event"
    },
    {
      "anonymous": false,
      "inputs": [
        {
          "indexed": false,
          "internalType": "uint256",
          "name": "newBossHp",
          "type": "uint256"
        },
        {
          "indexed": false,
          "internalType": "uint256",
          "name": "newPlayerHp",
          "type": "uint256"
        }
      ],
      "name": "AttackCompleted",
      "type": "event"
    },
    {
      "anonymous": false,
      "inputs": [
        {
          "indexed": false,
          "internalType": "address",
          "name": "sender",
          "type": "address"
        },
        {
          "indexed": false,
          "internalType": "uint256",
          "name": "tokenId",
          "type": "uint256"
        },
        {
          "indexed": false,
          "internalType": "uint256",
          "name": "characterIndex",
          "type": "uint256"
        }
      ],
      "name": "CharacterNFTMinted",
      "type": "event"
    },
    {
      "anonymous": false,
      "inputs": [
        {
          "indexed": true,
          "internalType": "address",
          "name": "from",
          "type": "address"
        },
        {
          "indexed": true,
          "internalType": "address",
          "name": "to",
          "type": "address"
        },
        {
          "indexed": true,
          "internalType": "uint256",
          "name": "tokenId",
          "type": "uint256"
        }
      ],
      "name": "Transfer",
      "type": "event"
    },
    {
      "inputs": [
        {
          "internalType": "address",
          "name": "to",
          "type": "address"
        },
        {
          "internalType": "uint256",
          "name": "tokenId",
          "type": "uint256"
        }
      ],
      "name": "approve",
      "outputs": [],
      "stateMutability": "nonpayable",
      "type": "function"
    },
    {
      "inputs": [],
      "name": "attackBoss",
      "outputs": [],
      "stateMutability": "nonpayable",
      "type": "function"
    },
    {
      "inputs": [
        {
          "internalType": "address",
          "name": "owner",
          "type": "address"
        }
      ],
      "name": "balanceOf",
      "outputs": [
        {
          "internalType": "uint256",
          "name": "",
          "type": "uint256"
        }
      ],
      "stateMutability": "view",
      "type": "function"
    },
    {
      "inputs": [],
      "name": "bigBoss",
      "outputs": [
        {
          "internalType": "string",
          "name": "name",
          "type": "string"
        },
        {
          "internalType": "string",
          "name": "imageURI",
          "type": "string"
        },
        {
          "internalType": "uint256",
          "name": "hp",
          "type": "uint256"
        },
        {
          "internalType": "uint256",
          "name": "maxHp",
          "type": "uint256"
        },
        {
          "internalType": "uint256",
          "name": "attackDamage",
          "type": "uint256"
        }
      ],
      "stateMutability": "view",
      "type": "function"
    },
    {
      "inputs": [],
      "name": "checkIfUserHasNFT",
      "outputs": [
        {
          "components": [
            {
              "internalType": "uint256",
              "name": "characterIndex",
              "type": "uint256"
            },
            {
              "internalType": "string",
              "name": "name",
              "type": "string"
            },
            {
              "internalType": "string",
              "name": "imageURI",
              "type": "string"
            },
            {
              "internalType": "uint256",
              "name": "hp",
              "type": "uint256"
            },
            {
              "internalType": "uint256",
              "name": "maxHp",
              "type": "uint256"
            },
            {
              "internalType": "uint256",
              "name": "attackDamage",
              "type": "uint256"
            }
          ],
          "internalType": "struct MyEpicGame.CharacterAttributes",
          "name": "",
          "type": "tuple"
        }
      ],
      "stateMutability": "view",
      "type": "function"
    },
    {
      "inputs": [],
      "name": "getAllDefaultCharacters",
      "outputs": [
        {
          "components": [
            {
              "internalType": "uint256",
              "name": "characterIndex",
              "type": "uint256"
            },
            {
              "internalType": "string",
              "name": "name",
              "type": "string"
            },
            {
              "internalType": "string",
              "name": "imageURI",
              "type": "string"
            },
            {
              "internalType": "uint256",
              "name": "hp",
              "type": "uint256"
            },
            {
              "internalType": "uint256",
              "name": "maxHp",
              "type": "uint256"
            },
            {
              "internalType": "uint256",
              "name": "attackDamage",
              "type": "uint256"
            }
          ],
          "internalType": "struct MyEpicGame.CharacterAttributes[]",
          "name": "",
          "type": "tuple[]"
        }
      ],
      "stateMutability": "view",
      "type": "function"
    },
    {
      "inputs": [
        {
          "internalType": "uint256",
          "name": "tokenId",
          "type": "uint256"
        }
      ],
      "name": "getApproved",
      "outputs": [
        {
          "internalType": "address",
          "name": "",
          "type": "address"
        }
      ],
      "stateMutability": "view",
      "type": "function"
    },
    {
      "inputs": [],
      "name": "getBigBoss",
      "outputs": [
        {
          "components": [
            {
              "internalType": "string",
              "name": "name",
              "type": "string"
            },
            {
              "internalType": "string",
              "name": "imageURI",
              "type": "string"
            },
            {
              "internalType": "uint256",
              "name": "hp",
              "type": "uint256"
            },
            {
              "internalType": "uint256",
              "name": "maxHp",
              "type": "uint256"
            },
            {
              "internalType": "uint256",
              "name": "attackDamage",
              "type": "uint256"
            }
          ],
          "internalType": "struct MyEpicGame.BigBoss",
          "name": "",
          "type": "tuple"
        }
      ],
      "stateMutability": "view",
      "type": "function"
    },
    {
      "inputs": [
        {
          "internalType": "uint256",
          "name": "_tokenId",
          "type": "uint256"
        }
      ],
      "name": "getMetadata",
      "outputs": [
        {
          "internalType": "string",
          "name": "",
          "type": "string"
        }
      ],
      "stateMutability": "view",
      "type": "function"
    },
    {
      "inputs": [
        {
          "internalType": "address",
          "name": "owner",
          "type": "address"
        },
        {
          "internalType": "address",
          "name": "operator",
          "type": "address"
        }
      ],
      "name": "isApprovedForAll",
      "outputs": [
        {
          "internalType": "bool",
          "name": "",
          "type": "bool"
        }
      ],
      "stateMutability": "view",
      "type": "function"
    },
    {
      "inputs": [
        {
          "internalType": "uint256",
          "name": "_characterIndex",
          "type": "uint256"
        }
      ],
      "name": "mintCharacterNFT",
      "outputs": [],
      "stateMutability": "nonpayable",
      "type": "function"
    },
    {
      "inputs": [],
      "name": "name",
      "outputs": [
        {
          "internalType": "string",
          "name": "",
          "type": "string"
        }
      ],
      "stateMutability": "view",
      "type": "function"
    },
    {
      "inputs": [
        {
          "internalType": "uint256",
          "name": "tokenId",
          "type": "uint256"
        }
      ],
      "name": "ownerOf",
      "outputs": [
        {
          "internalType": "address",
          "name": "",
          "type": "address"
        }
      ],
      "stateMutability": "view",
      "type": "function"
    },
    {
      "inputs": [
        {
          "internalType": "address",
          "name": "from",
          "type": "address"
        },
        {
          "internalType": "address",
          "name": "to",
          "type": "address"
        },
        {
          "internalType": "uint256",
          "name": "tokenId",
          "type": "uint256"
        }
      ],
      "name": "safeTransferFrom",
      "outputs": [],
      "stateMutability": "nonpayable",
      "type": "function"
    },
    {
      "inputs": [
        {
          "internalType": "address",
          "name": "from",
          "type": "address"
        },
        {
          "internalType": "address",
          "name": "to",
          "type": "address"
        },
        {
          "internalType": "uint256",
          "name": "tokenId",
          "type": "uint256"
        },
        {
          "internalType": "bytes",
          "name": "_data",
          "type": "bytes"
        }
      ],
      "name": "safeTransferFrom",
      "outputs": [],
      "stateMutability": "nonpayable",
      "type": "function"
    },
    {
      "inputs": [
        {
          "internalType": "address",
          "name": "operator",
          "type": "address"
        },
        {
          "internalType": "bool",
          "name": "approved",
          "type": "bool"
        }
      ],
      "name": "setApprovalForAll",
      "outputs": [],
      "stateMutability": "nonpayable",
      "type": "function"
    },
    {
      "inputs": [
        {
          "internalType": "bytes4",
          "name": "interfaceId",
          "type": "bytes4"
        }
      ],
      "name": "supportsInterface",
      "outputs": [
        {
          "internalType": "bool",
          "name": "",
          "type": "bool"
        }
      ],
      "stateMutability": "view",
      "type": "function"
    },
    {
      "inputs": [],
      "name": "symbol",
      "outputs": [
        {
          "internalType": "string",
          "name": "",
          "type": "string"
        }
      ],
      "stateMutability": "view",
      "type": "function"
    },
    {
      "inputs": [
        {
          "internalType": "uint256",
          "name": "_tokenId",
          "type": "uint256"
        }
      ],
      "name": "tokenURI",
      "outputs": [
        {
          "internalType": "string",
          "name": "",
          "type": "string"
        }
      ],
      "stateMutability": "view",
      "type": "function"
    },
    {
      "inputs": [
        {
          "internalType": "address",
          "name": "from",
          "type": "address"
        },
        {
          "internalType": "address",
          "name": "to",
          "type": "address"
        },
        {
          "internalType": "uint256",
          "name": "tokenId",
          "type": "uint256"
        }
      ],
      "name": "transferFrom",
      "outputs": [],
      "stateMutability": "nonpayable",
      "type": "function"
    }
  ],
  "bytecode": "0x60806040523480156200001157600080fd5b506040516200575838038062005758833981810160405281019062000037919062000ae5565b6040518060400160405280600681526020017f4865726f657300000000000000000000000000000000000000000000000000008152506040518060400160405280600481526020017f4845524f000000000000000000000000000000000000000000000000000000008152508160009080519060200190620000bb9291906200084d565b508060019080519060200190620000d49291906200084d565b5050506040518060a0016040528085815260200184815260200183815260200183815260200182815250600860008201518160000190805190602001906200011e9291906200084d565b5060208201518160010190805190602001906200013d9291906200084d565b50604082015181600201556060820151816003015560808201518160040155905050620002466040518060400160405280601281526020017f5b426f73735d2048503a202573202d202573000000000000000000000000000081525060086002015460086001018054620001b19062000e56565b80601f0160208091040260200160405190810160405280929190818152602001828054620001df9062000e56565b8015620002305780601f10620002045761010080835404028352916020019162000230565b820191906000526020600020905b8154815290600101906020018083116200021257829003601f168201915b5050505050620006cf60201b620019041760201c565b60005b8851811015620006c05760076040518060c001604052808381526020018b8481518110620002a0577f4e487b7100000000000000000000000000000000000000000000000000000000600052603260045260246000fd5b602002602001015181526020018a8481518110620002e7577f4e487b7100000000000000000000000000000000000000000000000000000000600052603260045260246000fd5b602002602001015181526020018984815181106200032e577f4e487b7100000000000000000000000000000000000000000000000000000000600052603260045260246000fd5b6020026020010151815260200189848151811062000375577f4e487b7100000000000000000000000000000000000000000000000000000000600052603260045260246000fd5b60200260200101518152602001888481518110620003bc577f4e487b7100000000000000000000000000000000000000000000000000000000600052603260045260246000fd5b60200260200101518152509080600181540180825580915050600190039060005260206000209060060201600090919091909150600082015181600001556020820151816001019080519060200190620004189291906200084d565b506040820151816002019080519060200190620004379291906200084d565b50606082015181600301556080820151816004015560a082015181600501555050620006aa6040518060400160405280601081526020017f5b25735d2048503a202573202d2025730000000000000000000000000000000081525060078381548110620004cd577f4e487b7100000000000000000000000000000000000000000000000000000000600052603260045260246000fd5b90600052602060002090600602016001018054620004eb9062000e56565b80601f0160208091040260200160405190810160405280929190818152602001828054620005199062000e56565b80156200056a5780601f106200053e576101008083540402835291602001916200056a565b820191906000526020600020905b8154815290600101906020018083116200054c57829003601f168201915b505050505060078481548110620005aa577f4e487b7100000000000000000000000000000000000000000000000000000000600052603260045260246000fd5b90600052602060002090600602016003015460078581548110620005f7577f4e487b7100000000000000000000000000000000000000000000000000000000600052603260045260246000fd5b90600052602060002090600602016002018054620006159062000e56565b80601f0160208091040260200160405190810160405280929190818152602001828054620006439062000e56565b8015620006945780601f10620006685761010080835404028352916020019162000694565b820191906000526020600020905b8154815290600101906020018083116200067657829003601f168201915b50505050506200077860201b620019a31760201c565b8080620006b79062000ec2565b91505062000249565b50505050505050505062000fc8565b62000773838383604051602401620006ea9392919062000cf2565b6040516020818303038152906040527fa3f5c739000000000000000000000000000000000000000000000000000000007bffffffffffffffffffffffffffffffffffffffffffffffffffffffff19166020820180517bffffffffffffffffffffffffffffffffffffffffffffffffffffffff83818316178352505050506200082460201b60201c565b505050565b6200081e8484848460405160240162000795949392919062000c90565b6040516020818303038152906040527f8d142cdd000000000000000000000000000000000000000000000000000000007bffffffffffffffffffffffffffffffffffffffffffffffffffffffff19166020820180517bffffffffffffffffffffffffffffffffffffffffffffffffffffffff83818316178352505050506200082460201b60201c565b50505050565b60008151905060006a636f6e736f6c652e6c6f679050602083016000808483855afa5050505050565b8280546200085b9062000e56565b90600052602060002090601f0160209004810192826200087f5760008555620008cb565b82601f106200089a57805160ff1916838001178555620008cb565b82800160010185558215620008cb579182015b82811115620008ca578251825591602001919060010190620008ad565b5b509050620008da9190620008de565b5090565b5b80821115620008f9576000816000905550600101620008df565b5090565b6000620009146200090e8462000d66565b62000d3d565b905080838252602082019050828560208602820111156200093457600080fd5b60005b858110156200098357815167ffffffffffffffff8111156200095857600080fd5b80860162000967898262000aa1565b8552602085019450602084019350505060018101905062000937565b5050509392505050565b6000620009a46200099e8462000d95565b62000d3d565b90508083825260208201905082856020860282011115620009c457600080fd5b60005b85811015620009f85781620009dd888262000ace565b845260208401935060208301925050600181019050620009c7565b5050509392505050565b600062000a1962000a138462000dc4565b62000d3d565b90508281526020810184848401111562000a3257600080fd5b62000a3f84828562000e20565b509392505050565b600082601f83011262000a5957600080fd5b815162000a6b848260208601620008fd565b91505092915050565b600082601f83011262000a8657600080fd5b815162000a988482602086016200098d565b91505092915050565b600082601f83011262000ab357600080fd5b815162000ac584826020860162000a02565b91505092915050565b60008151905062000adf8162000fae565b92915050565b600080600080600080600080610100898b03121562000b0357600080fd5b600089015167ffffffffffffffff81111562000b1e57600080fd5b62000b2c8b828c0162000a47565b985050602089015167ffffffffffffffff81111562000b4a57600080fd5b62000b588b828c0162000a47565b975050604089015167ffffffffffffffff81111562000b7657600080fd5b62000b848b828c0162000a74565b965050606089015167ffffffffffffffff81111562000ba257600080fd5b62000bb08b828c0162000a74565b955050608089015167ffffffffffffffff81111562000bce57600080fd5b62000bdc8b828c0162000aa1565b94505060a089015167ffffffffffffffff81111562000bfa57600080fd5b62000c088b828c0162000aa1565b93505060c062000c1b8b828c0162000ace565b92505060e062000c2e8b828c0162000ace565b9150509295985092959890939650565b600062000c4b8262000dfa565b62000c57818562000e05565b935062000c6981856020860162000e20565b62000c748162000f9d565b840191505092915050565b62000c8a8162000e16565b82525050565b6000608082019050818103600083015262000cac818762000c3e565b9050818103602083015262000cc2818662000c3e565b905062000cd3604083018562000c7f565b818103606083015262000ce7818462000c3e565b905095945050505050565b6000606082019050818103600083015262000d0e818662000c3e565b905062000d1f602083018562000c7f565b818103604083015262000d33818462000c3e565b9050949350505050565b600062000d4962000d5c565b905062000d57828262000e8c565b919050565b6000604051905090565b600067ffffffffffffffff82111562000d845762000d8362000f6e565b5b602082029050602081019050919050565b600067ffffffffffffffff82111562000db35762000db262000f6e565b5b602082029050602081019050919050565b600067ffffffffffffffff82111562000de25762000de162000f6e565b5b62000ded8262000f9d565b9050602081019050919050565b600081519050919050565b600082825260208201905092915050565b6000819050919050565b60005b8381101562000e4057808201518184015260208101905062000e23565b8381111562000e50576000848401525b50505050565b6000600282049050600182168062000e6f57607f821691505b6020821081141562000e865762000e8562000f3f565b5b50919050565b62000e978262000f9d565b810181811067ffffffffffffffff8211171562000eb95762000eb862000f6e565b5b80604052505050565b600062000ecf8262000e16565b91507fffffffffffffffffffffffffffffffffffffffffffffffffffffffffffffffff82141562000f055762000f0462000f10565b5b600182019050919050565b7f4e487b7100000000000000000000000000000000000000000000000000000000600052601160045260246000fd5b7f4e487b7100000000000000000000000000000000000000000000000000000000600052602260045260246000fd5b7f4e487b7100000000000000000000000000000000000000000000000000000000600052604160045260246000fd5b6000601f19601f8301169050919050565b62000fb98162000e16565b811462000fc557600080fd5b50565b6147808062000fd86000396000f3fe608060405234801561001057600080fd5b506004361061012c5760003560e01c8063a22cb465116100ad578063c87b56dd11610071578063c87b56dd14610347578063c8cf27f414610377578063d4f24c5b14610395578063e985e9c51461039f578063f8b81ef7146103cf5761012c565b8063a22cb4651461029f578063a574cea4146102bb578063a9c32679146102eb578063b88d4fde1461030d578063b953084e146103295761012c565b806323b872dd116100f457806323b872dd146101e957806342842e0e146102055780636352211e1461022157806370a082311461025157806395d89b41146102815761012c565b806301ffc9a7146101315780630665f9611461016157806306fdde031461017f578063081812fc1461019d578063095ea7b3146101cd575b600080fd5b61014b60048036038101906101469190612d2c565b6103eb565b60405161015891906136c6565b60405180910390f35b6101696104cd565b6040516101769190613a66565b60405180910390f35b610187610629565b60405161019491906136e1565b60405180910390f35b6101b760048036038101906101b29190612d7e565b6106bb565b6040516101c49190613606565b60405180910390f35b6101e760048036038101906101e29190612cf0565b610740565b005b61020360048036038101906101fe9190612bea565b610858565b005b61021f600480360381019061021a9190612bea565b6108b8565b005b61023b60048036038101906102369190612d7e565b6108d8565b6040516102489190613606565b60405180910390f35b61026b60048036038101906102669190612b85565b61098a565b6040516102789190613aaa565b60405180910390f35b610289610a42565b60405161029691906136e1565b60405180910390f35b6102b960048036038101906102b49190612cb4565b610ad4565b005b6102d560048036038101906102d09190612d7e565b610aea565b6040516102e291906136e1565b60405180910390f35b6102f3610cc0565b6040516103049594939291906137b0565b60405180910390f35b61032760048036038101906103229190612c39565b610df4565b005b610331610e56565b60405161033e91906136a4565b60405180910390f35b610361600480360381019061035c9190612d7e565b611001565b60405161036e91906136e1565b60405180910390f35b61037f611046565b60405161038c9190613a88565b60405180910390f35b61039d61121e565b005b6103b960048036038101906103b49190612bae565b6115ae565b6040516103c691906136c6565b60405180910390f35b6103e960048036038101906103e49190612d7e565b611642565b005b60007f80ac58cd000000000000000000000000000000000000000000000000000000007bffffffffffffffffffffffffffffffffffffffffffffffffffffffff1916827bffffffffffffffffffffffffffffffffffffffffffffffffffffffff191614806104b657507f5b5e139f000000000000000000000000000000000000000000000000000000007bffffffffffffffffffffffffffffffffffffffffffffffffffffffff1916827bffffffffffffffffffffffffffffffffffffffffffffffffffffffff1916145b806104c657506104c582611a45565b5b9050919050565b6104d56129ac565b60086040518060a00160405290816000820180546104f290613d9c565b80601f016020809104026020016040519081016040528092919081815260200182805461051e90613d9c565b801561056b5780601f106105405761010080835404028352916020019161056b565b820191906000526020600020905b81548152906001019060200180831161054e57829003601f168201915b5050505050815260200160018201805461058490613d9c565b80601f01602080910402602001604051908101604052809291908181526020018280546105b090613d9c565b80156105fd5780601f106105d2576101008083540402835291602001916105fd565b820191906000526020600020905b8154815290600101906020018083116105e057829003601f168201915b505050505081526020016002820154815260200160038201548152602001600482015481525050905090565b60606000805461063890613d9c565b80601f016020809104026020016040519081016040528092919081815260200182805461066490613d9c565b80156106b15780601f10610686576101008083540402835291602001916106b1565b820191906000526020600020905b81548152906001019060200180831161069457829003601f168201915b5050505050905090565b60006106c682611aaf565b610705576040517f08c379a00000000000000000000000000000000000000000000000000000000081526004016106fc906139a6565b60405180910390fd5b6004600083815260200190815260200160002060009054906101000a900473ffffffffffffffffffffffffffffffffffffffff169050919050565b600061074b826108d8565b90508073ffffffffffffffffffffffffffffffffffffffff168373ffffffffffffffffffffffffffffffffffffffff1614156107bc576040517f08c379a00000000000000000000000000000000000000000000000000000000081526004016107b3906139e6565b60405180910390fd5b8073ffffffffffffffffffffffffffffffffffffffff166107db611b1b565b73ffffffffffffffffffffffffffffffffffffffff16148061080a575061080981610804611b1b565b6115ae565b5b610849576040517f08c379a000000000000000000000000000000000000000000000000000000000815260040161084090613926565b60405180910390fd5b6108538383611b23565b505050565b610869610863611b1b565b82611bdc565b6108a8576040517f08c379a000000000000000000000000000000000000000000000000000000000815260040161089f90613a06565b60405180910390fd5b6108b3838383611cba565b505050565b6108d383838360405180602001604052806000815250610df4565b505050565b6000806002600084815260200190815260200160002060009054906101000a900473ffffffffffffffffffffffffffffffffffffffff169050600073ffffffffffffffffffffffffffffffffffffffff168173ffffffffffffffffffffffffffffffffffffffff161415610981576040517f08c379a000000000000000000000000000000000000000000000000000000000815260040161097890613966565b60405180910390fd5b80915050919050565b60008073ffffffffffffffffffffffffffffffffffffffff168273ffffffffffffffffffffffffffffffffffffffff1614156109fb576040517f08c379a00000000000000000000000000000000000000000000000000000000081526004016109f290613946565b60405180910390fd5b600360008373ffffffffffffffffffffffffffffffffffffffff1673ffffffffffffffffffffffffffffffffffffffff168152602001908152602001600020549050919050565b606060018054610a5190613d9c565b80601f0160208091040260200160405190810160405280929190818152602001828054610a7d90613d9c565b8015610aca5780601f10610a9f57610100808354040283529160200191610aca565b820191906000526020600020905b815481529060010190602001808311610aad57829003601f168201915b5050505050905090565b610ae6610adf611b1b565b8383611f16565b5050565b60606000600e60008481526020019081526020016000206040518060c001604052908160008201548152602001600182018054610b2690613d9c565b80601f0160208091040260200160405190810160405280929190818152602001828054610b5290613d9c565b8015610b9f5780601f10610b7457610100808354040283529160200191610b9f565b820191906000526020600020905b815481529060010190602001808311610b8257829003601f168201915b50505050508152602001600282018054610bb890613d9c565b80601f0160208091040260200160405190810160405280929190818152602001828054610be490613d9c565b8015610c315780601f10610c0657610100808354040283529160200191610c31565b820191906000526020600020905b815481529060010190602001808311610c1457829003601f168201915b50505050508152602001600382015481526020016004820154815260200160058201548152505090508060200151610c6884612083565b8260400151610c7a8460600151612083565b610c878560800151612083565b610c948660a00151612083565b604051602001610ca9969594939291906134dc565b604051602081830303815290604052915050919050565b6008806000018054610cd190613d9c565b80601f0160208091040260200160405190810160405280929190818152602001828054610cfd90613d9c565b8015610d4a5780601f10610d1f57610100808354040283529160200191610d4a565b820191906000526020600020905b815481529060010190602001808311610d2d57829003601f168201915b505050505090806001018054610d5f90613d9c565b80601f0160208091040260200160405190810160405280929190818152602001828054610d8b90613d9c565b8015610dd85780601f10610dad57610100808354040283529160200191610dd8565b820191906000526020600020905b815481529060010190602001808311610dbb57829003601f168201915b5050505050908060020154908060030154908060040154905085565b610e05610dff611b1b565b83611bdc565b610e44576040517f08c379a0000000000000000000000000000000000000000000000000000000008152600401610e3b90613a06565b60405180910390fd5b610e5084848484612230565b50505050565b60606007805480602002602001604051908101604052809291908181526020016000905b82821015610ff857838290600052602060002090600602016040518060c001604052908160008201548152602001600182018054610eb790613d9c565b80601f0160208091040260200160405190810160405280929190818152602001828054610ee390613d9c565b8015610f305780601f10610f0557610100808354040283529160200191610f30565b820191906000526020600020905b815481529060010190602001808311610f1357829003601f168201915b50505050508152602001600282018054610f4990613d9c565b80601f0160208091040260200160405190810160405280929190818152602001828054610f7590613d9c565b8015610fc25780601f10610f9757610100808354040283529160200191610fc2565b820191906000526020600020905b815481529060010190602001808311610fa557829003601f168201915b50505050508152602001600382015481526020016004820154815260200160058201548152505081526020019060010190610e7a565b50505050905090565b6060600061101661101184610aea565b61228c565b905060008160405160200161102b91906135e4565b60405160208183030381529060405290508092505050919050565b61104e6129db565b6000600d60003373ffffffffffffffffffffffffffffffffffffffff1673ffffffffffffffffffffffffffffffffffffffff168152602001908152602001600020549050600081111561120d57600e60008281526020019081526020016000206040518060c0016040529081600082015481526020016001820180546110d390613d9c565b80601f01602080910402602001604051908101604052809291908181526020018280546110ff90613d9c565b801561114c5780601f106111215761010080835404028352916020019161114c565b820191906000526020600020905b81548152906001019060200180831161112f57829003601f168201915b5050505050815260200160028201805461116590613d9c565b80601f016020809104026020016040519081016040528092919081815260200182805461119190613d9c565b80156111de5780601f106111b3576101008083540402835291602001916111de565b820191906000526020600020905b8154815290600101906020018083116111c157829003601f168201915b50505050508152602001600382015481526020016004820154815260200160058201548152505091505061121b565b6112156129db565b80925050505b90565b6000600d60003373ffffffffffffffffffffffffffffffffffffffff1673ffffffffffffffffffffffffffffffffffffffff1681526020019081526020016000205490506000600e600083815260200190815260200160002090506113316040518060600160405280603c815260200161470f603c91398260010180546112a490613d9c565b80601f01602080910402602001604051908101604052809291908181526020018280546112d090613d9c565b801561131d5780601f106112f25761010080835404028352916020019161131d565b820191906000526020600020905b81548152906001019060200180831161130057829003601f168201915b50505050508360030154846005015461242b565b6114096040518060400160405280601b81526020017f426f73732025732068617320257320485020616e6420257320414400000000008152506008600001805461137a90613d9c565b80601f01602080910402602001604051908101604052809291908181526020018280546113a690613d9c565b80156113f35780601f106113c8576101008083540402835291602001916113f3565b820191906000526020600020905b8154815290600101906020018083116113d657829003601f168201915b505050505060086002015460086004015461242b565b6000816003015411611450576040517f08c379a000000000000000000000000000000000000000000000000000000000815260040161144790613a26565b60405180910390fd5b600060086002015411611498576040517f08c379a000000000000000000000000000000000000000000000000000000000815260040161148f90613a46565b60405180910390fd5b806005015460086002015410156114b95760006008600201819055506114da565b8060050154600860020160008282546114d29190613cb2565b925050819055505b600860040154816003015410156114fa576000816003018190555061151b565b6008600401548160030160008282546115139190613cb2565b925050819055505b611542604051806060016040528060258152602001614682602591396008600201546124cd565b6115686040518060600160405280602881526020016146e76028913982600301546124cd565b7f24596b044f9390b6f54a6470706bb6795f0a3a4b6d148ca80241481a5f60938c60086002015482600301546040516115a2929190613ac5565b60405180910390a15050565b6000600560008473ffffffffffffffffffffffffffffffffffffffff1673ffffffffffffffffffffffffffffffffffffffff16815260200190815260200160002060008373ffffffffffffffffffffffffffffffffffffffff1673ffffffffffffffffffffffffffffffffffffffff16815260200190815260200160002060009054906101000a900460ff16905092915050565b61164c6006612569565b6000611658600661257f565b9050611664338261258d565b6000600783815481106116a0577f4e487b7100000000000000000000000000000000000000000000000000000000600052603260045260246000fd5b90600052602060002090600602016040518060c0016040529081600082015481526020016001820180546116d390613d9c565b80601f01602080910402602001604051908101604052809291908181526020018280546116ff90613d9c565b801561174c5780601f106117215761010080835404028352916020019161174c565b820191906000526020600020905b81548152906001019060200180831161172f57829003601f168201915b5050505050815260200160028201805461176590613d9c565b80601f016020809104026020016040519081016040528092919081815260200182805461179190613d9c565b80156117de5780601f106117b3576101008083540402835291602001916117de565b820191906000526020600020905b8154815290600101906020018083116117c157829003601f168201915b505050505081526020016003820154815260200160048201548152602001600582015481525050905080600e6000848152602001908152602001600020600082015181600001556020820151816001019080519060200190611841929190612a11565b50604082015181600201908051906020019061185e929190612a11565b50606082015181600301556080820151816004015560a0820151816005015590505081600d60003373ffffffffffffffffffffffffffffffffffffffff1673ffffffffffffffffffffffffffffffffffffffff168152602001908152602001600020819055507f4bc303fd457a97b4691b9af582ce71868a3d258638c8d4f8c60988a0f0bfb8cd3383856040516118f79392919061366d565b60405180910390a1505050565b61199e83838360405160240161191c93929190613841565b6040516020818303038152906040527fa3f5c739000000000000000000000000000000000000000000000000000000007bffffffffffffffffffffffffffffffffffffffffffffffffffffffff19166020820180517bffffffffffffffffffffffffffffffffffffffffffffffffffffffff83818316178352505050506125ab565b505050565b611a3f848484846040516024016119bd9493929190613703565b6040516020818303038152906040527f8d142cdd000000000000000000000000000000000000000000000000000000007bffffffffffffffffffffffffffffffffffffffffffffffffffffffff19166020820180517bffffffffffffffffffffffffffffffffffffffffffffffffffffffff83818316178352505050506125ab565b50505050565b60007f01ffc9a7000000000000000000000000000000000000000000000000000000007bffffffffffffffffffffffffffffffffffffffffffffffffffffffff1916827bffffffffffffffffffffffffffffffffffffffffffffffffffffffff1916149050919050565b60008073ffffffffffffffffffffffffffffffffffffffff166002600084815260200190815260200160002060009054906101000a900473ffffffffffffffffffffffffffffffffffffffff1673ffffffffffffffffffffffffffffffffffffffff1614159050919050565b600033905090565b816004600083815260200190815260200160002060006101000a81548173ffffffffffffffffffffffffffffffffffffffff021916908373ffffffffffffffffffffffffffffffffffffffff160217905550808273ffffffffffffffffffffffffffffffffffffffff16611b96836108d8565b73ffffffffffffffffffffffffffffffffffffffff167f8c5be1e5ebec7d5bd14f71427d1e84f3dd0314c0f7b2291e5b200ac8c7c3b92560405160405180910390a45050565b6000611be782611aaf565b611c26576040517f08c379a0000000000000000000000000000000000000000000000000000000008152600401611c1d90613906565b60405180910390fd5b6000611c31836108d8565b90508073ffffffffffffffffffffffffffffffffffffffff168473ffffffffffffffffffffffffffffffffffffffff161480611ca057508373ffffffffffffffffffffffffffffffffffffffff16611c88846106bb565b73ffffffffffffffffffffffffffffffffffffffff16145b80611cb15750611cb081856115ae565b5b91505092915050565b8273ffffffffffffffffffffffffffffffffffffffff16611cda826108d8565b73ffffffffffffffffffffffffffffffffffffffff1614611d30576040517f08c379a0000000000000000000000000000000000000000000000000000000008152600401611d27906139c6565b60405180910390fd5b600073ffffffffffffffffffffffffffffffffffffffff168273ffffffffffffffffffffffffffffffffffffffff161415611da0576040517f08c379a0000000000000000000000000000000000000000000000000000000008152600401611d97906138c6565b60405180910390fd5b611dab8383836125d4565b611db6600082611b23565b6001600360008573ffffffffffffffffffffffffffffffffffffffff1673ffffffffffffffffffffffffffffffffffffffff1681526020019081526020016000206000828254611e069190613cb2565b925050819055506001600360008473ffffffffffffffffffffffffffffffffffffffff1673ffffffffffffffffffffffffffffffffffffffff1681526020019081526020016000206000828254611e5d9190613bd1565b92505081905550816002600083815260200190815260200160002060006101000a81548173ffffffffffffffffffffffffffffffffffffffff021916908373ffffffffffffffffffffffffffffffffffffffff160217905550808273ffffffffffffffffffffffffffffffffffffffff168473ffffffffffffffffffffffffffffffffffffffff167fddf252ad1be2c89b69c2b068fc378daa952ba7f163c4a11628f55a4df523b3ef60405160405180910390a4505050565b8173ffffffffffffffffffffffffffffffffffffffff168373ffffffffffffffffffffffffffffffffffffffff161415611f85576040517f08c379a0000000000000000000000000000000000000000000000000000000008152600401611f7c906138e6565b60405180910390fd5b80600560008573ffffffffffffffffffffffffffffffffffffffff1673ffffffffffffffffffffffffffffffffffffffff16815260200190815260200160002060008473ffffffffffffffffffffffffffffffffffffffff1673ffffffffffffffffffffffffffffffffffffffff16815260200190815260200160002060006101000a81548160ff0219169083151502179055508173ffffffffffffffffffffffffffffffffffffffff168373ffffffffffffffffffffffffffffffffffffffff167f17307eab39ab6107e8899845ad3d59bd9653f200f220920489ca2b5937696c318360405161207691906136c6565b60405180910390a3505050565b606060008214156120cb576040518060400160405280600181526020017f3000000000000000000000000000000000000000000000000000000000000000815250905061222b565b600082905060005b600082146120fd5780806120e690613dff565b915050600a826120f69190613c27565b91506120d3565b60008167ffffffffffffffff81111561213f577f4e487b7100000000000000000000000000000000000000000000000000000000600052604160045260246000fd5b6040519080825280601f01601f1916602001820160405280156121715781602001600182028036833780820191505090505b5090505b600085146122245760018261218a9190613cb2565b9150600a856121999190613e48565b60306121a59190613bd1565b60f81b8183815181106121e1577f4e487b7100000000000000000000000000000000000000000000000000000000600052603260045260246000fd5b60200101907effffffffffffffffffffffffffffffffffffffffffffffffffffffffffffff1916908160001a905350600a8561221d9190613c27565b9450612175565b8093505050505b919050565b61223b848484611cba565b612247848484846125d9565b612286576040517f08c379a000000000000000000000000000000000000000000000000000000000815260040161227d90613886565b60405180910390fd5b50505050565b60606000825114156122af57604051806020016040528060008152509050612426565b60006040518060600160405280604081526020016146a760409139905060006003600285516122de9190613bd1565b6122e89190613c27565b60046122f49190613c58565b905060006020826123059190613bd1565b67ffffffffffffffff811115612344577f4e487b7100000000000000000000000000000000000000000000000000000000600052604160045260246000fd5b6040519080825280601f01601f1916602001820160405280156123765781602001600182028036833780820191505090505b509050818152600183018586518101602084015b818310156123e5576003830192508251603f8160121c168501518253600182019150603f81600c1c168501518253600182019150603f8160061c168501518253600182019150603f811685015182536001820191505061238a565b6003895106600181146123ff576002811461240f5761241a565b613d3d60f01b600283035261241a565b603d60f81b60018303525b50505050508093505050505b919050565b6124c784848484604051602401612445949392919061375d565b6040516020818303038152906040527fd5cf17d0000000000000000000000000000000000000000000000000000000007bffffffffffffffffffffffffffffffffffffffffffffffffffffffff19166020820180517bffffffffffffffffffffffffffffffffffffffffffffffffffffffff83818316178352505050506125ab565b50505050565b61256582826040516024016124e3929190613811565b6040516020818303038152906040527f9710a9d0000000000000000000000000000000000000000000000000000000007bffffffffffffffffffffffffffffffffffffffffffffffffffffffff19166020820180517bffffffffffffffffffffffffffffffffffffffffffffffffffffffff83818316178352505050506125ab565b5050565b6001816000016000828254019250508190555050565b600081600001549050919050565b6125a7828260405180602001604052806000815250612770565b5050565b60008151905060006a636f6e736f6c652e6c6f679050602083016000808483855afa5050505050565b505050565b60006125fa8473ffffffffffffffffffffffffffffffffffffffff166127cb565b15612763578373ffffffffffffffffffffffffffffffffffffffff1663150b7a02612623611b1b565b8786866040518563ffffffff1660e01b81526004016126459493929190613621565b602060405180830381600087803b15801561265f57600080fd5b505af192505050801561269057506040513d601f19601f8201168201806040525081019061268d9190612d55565b60015b612713573d80600081146126c0576040519150601f19603f3d011682016040523d82523d6000602084013e6126c5565b606091505b5060008151141561270b576040517f08c379a000000000000000000000000000000000000000000000000000000000815260040161270290613886565b60405180910390fd5b805181602001fd5b63150b7a0260e01b7bffffffffffffffffffffffffffffffffffffffffffffffffffffffff1916817bffffffffffffffffffffffffffffffffffffffffffffffffffffffff191614915050612768565b600190505b949350505050565b61277a83836127de565b61278760008484846125d9565b6127c6576040517f08c379a00000000000000000000000000000000000000000000000000000000081526004016127bd90613886565b60405180910390fd5b505050565b600080823b905060008111915050919050565b600073ffffffffffffffffffffffffffffffffffffffff168273ffffffffffffffffffffffffffffffffffffffff16141561284e576040517f08c379a000000000000000000000000000000000000000000000000000000000815260040161284590613986565b60405180910390fd5b61285781611aaf565b15612897576040517f08c379a000000000000000000000000000000000000000000000000000000000815260040161288e906138a6565b60405180910390fd5b6128a3600083836125d4565b6001600360008473ffffffffffffffffffffffffffffffffffffffff1673ffffffffffffffffffffffffffffffffffffffff16815260200190815260200160002060008282546128f39190613bd1565b92505081905550816002600083815260200190815260200160002060006101000a81548173ffffffffffffffffffffffffffffffffffffffff021916908373ffffffffffffffffffffffffffffffffffffffff160217905550808273ffffffffffffffffffffffffffffffffffffffff16600073ffffffffffffffffffffffffffffffffffffffff167fddf252ad1be2c89b69c2b068fc378daa952ba7f163c4a11628f55a4df523b3ef60405160405180910390a45050565b6040518060a0016040528060608152602001606081526020016000815260200160008152602001600081525090565b6040518060c001604052806000815260200160608152602001606081526020016000815260200160008152602001600081525090565b828054612a1d90613d9c565b90600052602060002090601f016020900481019282612a3f5760008555612a86565b82601f10612a5857805160ff1916838001178555612a86565b82800160010185558215612a86579182015b82811115612a85578251825591602001919060010190612a6a565b5b509050612a939190612a97565b5090565b5b80821115612ab0576000816000905550600101612a98565b5090565b6000612ac7612ac284613b13565b613aee565b905082815260208101848484011115612adf57600080fd5b612aea848285613d5a565b509392505050565b600081359050612b0181614625565b92915050565b600081359050612b168161463c565b92915050565b600081359050612b2b81614653565b92915050565b600081519050612b4081614653565b92915050565b600082601f830112612b5757600080fd5b8135612b67848260208601612ab4565b91505092915050565b600081359050612b7f8161466a565b92915050565b600060208284031215612b9757600080fd5b6000612ba584828501612af2565b91505092915050565b60008060408385031215612bc157600080fd5b6000612bcf85828601612af2565b9250506020612be085828601612af2565b9150509250929050565b600080600060608486031215612bff57600080fd5b6000612c0d86828701612af2565b9350506020612c1e86828701612af2565b9250506040612c2f86828701612b70565b9150509250925092565b60008060008060808587031215612c4f57600080fd5b6000612c5d87828801612af2565b9450506020612c6e87828801612af2565b9350506040612c7f87828801612b70565b925050606085013567ffffffffffffffff811115612c9c57600080fd5b612ca887828801612b46565b91505092959194509250565b60008060408385031215612cc757600080fd5b6000612cd585828601612af2565b9250506020612ce685828601612b07565b9150509250929050565b60008060408385031215612d0357600080fd5b6000612d1185828601612af2565b9250506020612d2285828601612b70565b9150509250929050565b600060208284031215612d3e57600080fd5b6000612d4c84828501612b1c565b91505092915050565b600060208284031215612d6757600080fd5b6000612d7584828501612b31565b91505092915050565b600060208284031215612d9057600080fd5b6000612d9e84828501612b70565b91505092915050565b6000612db3838361339e565b905092915050565b612dc481613ce6565b82525050565b6000612dd582613b54565b612ddf8185613b82565b935083602082028501612df185613b44565b8060005b85811015612e2d5784840389528151612e0e8582612da7565b9450612e1983613b75565b925060208a01995050600181019050612df5565b50829750879550505050505092915050565b612e4881613cf8565b82525050565b6000612e5982613b5f565b612e638185613b93565b9350612e73818560208601613d69565b612e7c81613f35565b840191505092915050565b6000612e9282613b6a565b612e9c8185613ba4565b9350612eac818560208601613d69565b612eb581613f35565b840191505092915050565b6000612ecb82613b6a565b612ed58185613bb5565b9350612ee5818560208601613d69565b612eee81613f35565b840191505092915050565b6000612f0482613b6a565b612f0e8185613bc6565b9350612f1e818560208601613d69565b80840191505092915050565b6000612f37600283613bc6565b9150612f4282613f46565b600282019050919050565b6000612f5a603283613bb5565b9150612f6582613f6f565b604082019050919050565b6000612f7d600283613bc6565b9150612f8882613fbe565b600282019050919050565b6000612fa0601c83613bb5565b9150612fab82613fe7565b602082019050919050565b6000612fc3605483613bc6565b9150612fce82614010565b605482019050919050565b6000612fe6602483613bb5565b9150612ff182614085565b604082019050919050565b6000613009601983613bb5565b9150613014826140d4565b602082019050919050565b600061302c602383613bc6565b9150613037826140fd565b602382019050919050565b600061304f600883613bc6565b915061305a8261414c565b600882019050919050565b6000613072602c83613bb5565b915061307d82614175565b604082019050919050565b6000613095603883613bb5565b91506130a0826141c4565b604082019050919050565b60006130b8602a83613bb5565b91506130c382614213565b604082019050919050565b60006130db602983613bb5565b91506130e682614262565b604082019050919050565b60006130fe600483613bc6565b9150613109826142b1565b600482019050919050565b6000613121600983613bc6565b915061312c826142da565b600982019050919050565b6000613144602083613bb5565b915061314f82614303565b602082019050919050565b6000613167600183613bc6565b91506131728261432c565b600182019050919050565b600061318a602c83613bb5565b915061319582614355565b604082019050919050565b60006131ad602983613bb5565b91506131b8826143a4565b604082019050919050565b60006131d0600183613bc6565b91506131db826143f3565b600182019050919050565b60006131f3601f83613bc6565b91506131fe8261441c565b601f82019050919050565b6000613216600183613bc6565b915061322182614445565b600182019050919050565b6000613239602183613bb5565b91506132448261446e565b604082019050919050565b600061325c601d83613bc6565b9150613267826144bd565b601d82019050919050565b600061327f603183613bb5565b915061328a826144e6565b604082019050919050565b60006132a2602883613bb5565b91506132ad82614535565b604082019050919050565b60006132c5602883613bb5565b91506132d082614584565b604082019050919050565b60006132e8601b83613bc6565b91506132f3826145d3565b601b82019050919050565b600061330b600e83613bc6565b9150613316826145fc565b600e82019050919050565b600060a083016000830151848203600086015261333e8282612e87565b915050602083015184820360208601526133588282612e87565b915050604083015161336d60408601826134be565b50606083015161338060608601826134be565b50608083015161339360808601826134be565b508091505092915050565b600060c0830160008301516133b660008601826134be565b50602083015184820360208601526133ce8282612e87565b915050604083015184820360408601526133e88282612e87565b91505060608301516133fd60608601826134be565b50608083015161341060808601826134be565b5060a083015161342360a08601826134be565b508091505092915050565b600060c08301600083015161344660008601826134be565b506020830151848203602086015261345e8282612e87565b915050604083015184820360408601526134788282612e87565b915050606083015161348d60608601826134be565b5060808301516134a060808601826134be565b5060a08301516134b360a08601826134be565b508091505092915050565b6134c781613d50565b82525050565b6134d681613d50565b82525050565b60006134e7826131c3565b91506134f282613042565b91506134fe8289612ef9565b9150613509826130f1565b91506135158288612ef9565b915061352082612f70565b915061352b82612fb6565b915061353682613114565b91506135428287612ef9565b915061354d82612f70565b9150613558826132fe565b9150613563826132db565b915061356f8286612ef9565b915061357a82612f2a565b9150613585826131e6565b91506135918285612ef9565b915061359c82612f2a565b91506135a78261301f565b91506135b38284612ef9565b91506135be8261315a565b91506135c982613209565b91506135d48261315a565b9150819050979650505050505050565b60006135ef8261324f565b91506135fb8284612ef9565b915081905092915050565b600060208201905061361b6000830184612dbb565b92915050565b60006080820190506136366000830187612dbb565b6136436020830186612dbb565b61365060408301856134cd565b81810360608301526136628184612e4e565b905095945050505050565b60006060820190506136826000830186612dbb565b61368f60208301856134cd565b61369c60408301846134cd565b949350505050565b600060208201905081810360008301526136be8184612dca565b905092915050565b60006020820190506136db6000830184612e3f565b92915050565b600060208201905081810360008301526136fb8184612ec0565b905092915050565b6000608082019050818103600083015261371d8187612ec0565b905081810360208301526137318186612ec0565b905061374060408301856134cd565b81810360608301526137528184612ec0565b905095945050505050565b600060808201905081810360008301526137778187612ec0565b9050818103602083015261378b8186612ec0565b905061379a60408301856134cd565b6137a760608301846134cd565b95945050505050565b600060a08201905081810360008301526137ca8188612ec0565b905081810360208301526137de8187612ec0565b90506137ed60408301866134cd565b6137fa60608301856134cd565b61380760808301846134cd565b9695505050505050565b6000604082019050818103600083015261382b8185612ec0565b905061383a60208301846134cd565b9392505050565b6000606082019050818103600083015261385b8186612ec0565b905061386a60208301856134cd565b818103604083015261387c8184612ec0565b9050949350505050565b6000602082019050818103600083015261389f81612f4d565b9050919050565b600060208201905081810360008301526138bf81612f93565b9050919050565b600060208201905081810360008301526138df81612fd9565b9050919050565b600060208201905081810360008301526138ff81612ffc565b9050919050565b6000602082019050818103600083015261391f81613065565b9050919050565b6000602082019050818103600083015261393f81613088565b9050919050565b6000602082019050818103600083015261395f816130ab565b9050919050565b6000602082019050818103600083015261397f816130ce565b9050919050565b6000602082019050818103600083015261399f81613137565b9050919050565b600060208201905081810360008301526139bf8161317d565b9050919050565b600060208201905081810360008301526139df816131a0565b9050919050565b600060208201905081810360008301526139ff8161322c565b9050919050565b60006020820190508181036000830152613a1f81613272565b9050919050565b60006020820190508181036000830152613a3f81613295565b9050919050565b60006020820190508181036000830152613a5f816132b8565b9050919050565b60006020820190508181036000830152613a808184613321565b905092915050565b60006020820190508181036000830152613aa2818461342e565b905092915050565b6000602082019050613abf60008301846134cd565b92915050565b6000604082019050613ada60008301856134cd565b613ae760208301846134cd565b9392505050565b6000613af8613b09565b9050613b048282613dce565b919050565b6000604051905090565b600067ffffffffffffffff821115613b2e57613b2d613f06565b5b613b3782613f35565b9050602081019050919050565b6000819050602082019050919050565b600081519050919050565b600081519050919050565b600081519050919050565b6000602082019050919050565b600082825260208201905092915050565b600082825260208201905092915050565b600082825260208201905092915050565b600082825260208201905092915050565b600081905092915050565b6000613bdc82613d50565b9150613be783613d50565b9250827fffffffffffffffffffffffffffffffffffffffffffffffffffffffffffffffff03821115613c1c57613c1b613e79565b5b828201905092915050565b6000613c3282613d50565b9150613c3d83613d50565b925082613c4d57613c4c613ea8565b5b828204905092915050565b6000613c6382613d50565b9150613c6e83613d50565b9250817fffffffffffffffffffffffffffffffffffffffffffffffffffffffffffffffff0483118215151615613ca757613ca6613e79565b5b828202905092915050565b6000613cbd82613d50565b9150613cc883613d50565b925082821015613cdb57613cda613e79565b5b828203905092915050565b6000613cf182613d30565b9050919050565b60008115159050919050565b60007fffffffff0000000000000000000000000000000000000000000000000000000082169050919050565b600073ffffffffffffffffffffffffffffffffffffffff82169050919050565b6000819050919050565b82818337600083830152505050565b60005b83811015613d87578082015181840152602081019050613d6c565b83811115613d96576000848401525b50505050565b60006002820490506001821680613db457607f821691505b60208210811415613dc857613dc7613ed7565b5b50919050565b613dd782613f35565b810181811067ffffffffffffffff82111715613df657613df5613f06565b5b80604052505050565b6000613e0a82613d50565b91507fffffffffffffffffffffffffffffffffffffffffffffffffffffffffffffffff821415613e3d57613e3c613e79565b5b600182019050919050565b6000613e5382613d50565b9150613e5e83613d50565b925082613e6e57613e6d613ea8565b5b828206905092915050565b7f4e487b7100000000000000000000000000000000000000000000000000000000600052601160045260246000fd5b7f4e487b7100000000000000000000000000000000000000000000000000000000600052601260045260246000fd5b7f4e487b7100000000000000000000000000000000000000000000000000000000600052602260045260246000fd5b7f4e487b7100000000000000000000000000000000000000000000000000000000600052604160045260246000fd5b6000601f19601f8301169050919050565b7f7d2c000000000000000000000000000000000000000000000000000000000000600082015250565b7f4552433732313a207472616e7366657220746f206e6f6e20455243373231526560008201527f63656976657220696d706c656d656e7465720000000000000000000000000000602082015250565b7f222c000000000000000000000000000000000000000000000000000000000000600082015250565b7f4552433732313a20746f6b656e20616c7265616479206d696e74656400000000600082015250565b7f226465736372697074696f6e223a224275696c6473706163652043726561746560008201527f20796f7572206f776e206d696e69207475726e2d6261736564204e465420627260208201527f6f777365722067616d652070726f6a656374222c000000000000000000000000604082015250565b7f4552433732313a207472616e7366657220746f20746865207a65726f2061646460008201527f7265737300000000000000000000000000000000000000000000000000000000602082015250565b7f4552433732313a20617070726f766520746f2063616c6c657200000000000000600082015250565b7f7b2274726169745f74797065223a2241747461636b20444d47222c2276616c7560008201527f65223a0000000000000000000000000000000000000000000000000000000000602082015250565b7f226e616d65223a22000000000000000000000000000000000000000000000000600082015250565b7f4552433732313a206f70657261746f7220717565727920666f72206e6f6e657860008201527f697374656e7420746f6b656e0000000000000000000000000000000000000000602082015250565b7f4552433732313a20617070726f76652063616c6c6572206973206e6f74206f7760008201527f6e6572206e6f7220617070726f76656420666f7220616c6c0000000000000000602082015250565b7f4552433732313a2062616c616e636520717565727920666f7220746865207a6560008201527f726f206164647265737300000000000000000000000000000000000000000000602082015250565b7f4552433732313a206f776e657220717565727920666f72206e6f6e657869737460008201527f656e7420746f6b656e0000000000000000000000000000000000000000000000602082015250565b7f202d202300000000000000000000000000000000000000000000000000000000600082015250565b7f22696d616765223a220000000000000000000000000000000000000000000000600082015250565b7f4552433732313a206d696e7420746f20746865207a65726f2061646472657373600082015250565b7f7d00000000000000000000000000000000000000000000000000000000000000600082015250565b7f4552433732313a20617070726f76656420717565727920666f72206e6f6e657860008201527f697374656e7420746f6b656e0000000000000000000000000000000000000000602082015250565b7f4552433732313a207472616e73666572206f6620746f6b656e2074686174206960008201527f73206e6f74206f776e0000000000000000000000000000000000000000000000602082015250565b7f7b00000000000000000000000000000000000000000000000000000000000000600082015250565b7f7b2274726169745f74797065223a224d6178204850222c2276616c7565223a00600082015250565b7f5d00000000000000000000000000000000000000000000000000000000000000600082015250565b7f4552433732313a20617070726f76616c20746f2063757272656e74206f776e6560008201527f7200000000000000000000000000000000000000000000000000000000000000602082015250565b7f646174613a6170706c69636174696f6e2f6a736f6e3b6261736536342c000000600082015250565b7f4552433732313a207472616e736665722063616c6c6572206973206e6f74206f60008201527f776e6572206e6f7220617070726f766564000000000000000000000000000000602082015250565b7f4572726f723a20436861726163746572206d757374206861766520485020746f60008201527f2061747461636b2e000000000000000000000000000000000000000000000000602082015250565b7f4572726f723a20426f7373206d757374206861766520485020746f206265206160008201527f747461636b65642e000000000000000000000000000000000000000000000000602082015250565b7f7b2274726169745f74797065223a224850222c2276616c7565223a0000000000600082015250565b7f2261747472696275746573223a5b000000000000000000000000000000000000600082015250565b61462e81613ce6565b811461463957600080fd5b50565b61464581613cf8565b811461465057600080fd5b50565b61465c81613d04565b811461466757600080fd5b50565b61467381613d50565b811461467e57600080fd5b5056fe506c617965722061747461636b656420626f73732e204e657720626f73732068703a2025734142434445464748494a4b4c4d4e4f505152535455565758595a6162636465666768696a6b6c6d6e6f707172737475767778797a303132333435363738392b2f426f73732061747461636b656420706c617965722e204e657720706c617965722068703a2025730a0a506c6179657220772f206368617261637465722025732061626f757420746f2061747461636b2e2048617320257320485020616e64202573204144a26469706673582212202a96f73356596220c4cf874bd6b56ee840df53845218219cc7acd74ba8e52c4564736f6c63430008040033",
  "linkReferences": {},
  "deployedLinkReferences": {}
}