{
  "_format": "hh-sol-artifact-1",
  "contractName": "MyEpicGame",
  "sourceName": "contracts/MyEpicGame.sol",
  "abi": [
    {
      "inputs": [
        {
          "internalType": "string[]",
          "name": "characterDexNumbers",
          "type": "string[]"
        },
        {
          "internalType": "string[]",
          "name": "characterNames",
          "type": "string[]"
        },
        {
          "internalType": "string[]",
          "name": "characterImageURIs",
          "type": "string[]"
        },
        {
          "internalType": "uint256[]",
          "name": "characterHp",
          "type": "uint256[]"
        },
        {
          "internalType": "uint256[]",
          "name": "characterAttackDamage",
          "type": "uint256[]"
        },
        {
          "internalType": "string",
          "name": "bossDexNumber",
          "type": "string"
        },
        {
          "internalType": "string",
          "name": "bossName",
          "type": "string"
        },
        {
          "internalType": "string",
          "name": "bossImageURI",
          "type": "string"
        },
        {
          "internalType": "uint256",
          "name": "bossHp",
          "type": "uint256"
        },
        {
          "internalType": "uint256",
          "name": "bossAttackDamage",
          "type": "uint256"
        }
      ],
      "stateMutability": "nonpayable",
      "type": "constructor"
    },
    {
      "anonymous": false,
      "inputs": [
        {
          "indexed": true,
          "internalType": "address",
          "name": "owner",
          "type": "address"
        },
        {
          "indexed": true,
          "internalType": "address",
          "name": "approved",
          "type": "address"
        },
        {
          "indexed": true,
          "internalType": "uint256",
          "name": "tokenId",
          "type": "uint256"
        }
      ],
      "name": "Approval",
      "type": "event"
    },
    {
      "anonymous": false,
      "inputs": [
        {
          "indexed": true,
          "internalType": "address",
          "name": "owner",
          "type": "address"
        },
        {
          "indexed": true,
          "internalType": "address",
          "name": "operator",
          "type": "address"
        },
        {
          "indexed": false,
          "internalType": "bool",
          "name": "approved",
          "type": "bool"
        }
      ],
      "name": "ApprovalForAll",
      "type": "event"
    },
    {
      "anonymous": false,
      "inputs": [
        {
          "indexed": false,
          "internalType": "uint256",
          "name": "newBossHp",
          "type": "uint256"
        },
        {
          "indexed": false,
          "internalType": "uint256",
          "name": "newPlayerHp",
          "type": "uint256"
        }
      ],
      "name": "AttackCompleted",
      "type": "event"
    },
    {
      "anonymous": false,
      "inputs": [
        {
          "indexed": false,
          "internalType": "address",
          "name": "sender",
          "type": "address"
        },
        {
          "indexed": false,
          "internalType": "uint256",
          "name": "tokenId",
          "type": "uint256"
        },
        {
          "indexed": false,
          "internalType": "uint256",
          "name": "characterIndex",
          "type": "uint256"
        }
      ],
      "name": "CharacterNFTMinted",
      "type": "event"
    },
    {
      "anonymous": false,
      "inputs": [
        {
          "indexed": true,
          "internalType": "address",
          "name": "from",
          "type": "address"
        },
        {
          "indexed": true,
          "internalType": "address",
          "name": "to",
          "type": "address"
        },
        {
          "indexed": true,
          "internalType": "uint256",
          "name": "tokenId",
          "type": "uint256"
        }
      ],
      "name": "Transfer",
      "type": "event"
    },
    {
      "inputs": [
        {
          "internalType": "address",
          "name": "to",
          "type": "address"
        },
        {
          "internalType": "uint256",
          "name": "tokenId",
          "type": "uint256"
        }
      ],
      "name": "approve",
      "outputs": [],
      "stateMutability": "nonpayable",
      "type": "function"
    },
    {
      "inputs": [],
      "name": "attackBoss",
      "outputs": [],
      "stateMutability": "nonpayable",
      "type": "function"
    },
    {
      "inputs": [
        {
          "internalType": "uint256",
          "name": "",
          "type": "uint256"
        }
      ],
      "name": "attributes",
      "outputs": [
        {
          "internalType": "uint256",
          "name": "characterIndex",
          "type": "uint256"
        },
        {
          "internalType": "string",
          "name": "dexNumber",
          "type": "string"
        },
        {
          "internalType": "string",
          "name": "name",
          "type": "string"
        },
        {
          "internalType": "string",
          "name": "imageURI",
          "type": "string"
        },
        {
          "internalType": "uint256",
          "name": "hp",
          "type": "uint256"
        },
        {
          "internalType": "uint256",
          "name": "maxHp",
          "type": "uint256"
        },
        {
          "internalType": "uint256",
          "name": "attackDamage",
          "type": "uint256"
        }
      ],
      "stateMutability": "view",
      "type": "function"
    },
    {
      "inputs": [
        {
          "internalType": "address",
          "name": "owner",
          "type": "address"
        }
      ],
      "name": "balanceOf",
      "outputs": [
        {
          "internalType": "uint256",
          "name": "",
          "type": "uint256"
        }
      ],
      "stateMutability": "view",
      "type": "function"
    },
    {
      "inputs": [],
      "name": "bigBoss",
      "outputs": [
        {
          "internalType": "string",
          "name": "dexNumber",
          "type": "string"
        },
        {
          "internalType": "string",
          "name": "name",
          "type": "string"
        },
        {
          "internalType": "string",
          "name": "imageURI",
          "type": "string"
        },
        {
          "internalType": "uint256",
          "name": "hp",
          "type": "uint256"
        },
        {
          "internalType": "uint256",
          "name": "maxHp",
          "type": "uint256"
        },
        {
          "internalType": "uint256",
          "name": "attackDamage",
          "type": "uint256"
        }
      ],
      "stateMutability": "view",
      "type": "function"
    },
    {
      "inputs": [],
      "name": "checkIfUserHasNFT",
      "outputs": [
        {
          "components": [
            {
              "internalType": "uint256",
              "name": "characterIndex",
              "type": "uint256"
            },
            {
              "internalType": "string",
              "name": "dexNumber",
              "type": "string"
            },
            {
              "internalType": "string",
              "name": "name",
              "type": "string"
            },
            {
              "internalType": "string",
              "name": "imageURI",
              "type": "string"
            },
            {
              "internalType": "uint256",
              "name": "hp",
              "type": "uint256"
            },
            {
              "internalType": "uint256",
              "name": "maxHp",
              "type": "uint256"
            },
            {
              "internalType": "uint256",
              "name": "attackDamage",
              "type": "uint256"
            }
          ],
          "internalType": "struct MyEpicGame.CharacterAttributes",
          "name": "",
          "type": "tuple"
        }
      ],
      "stateMutability": "view",
      "type": "function"
    },
    {
      "inputs": [],
      "name": "getAllDefaultCharacters",
      "outputs": [
        {
          "components": [
            {
              "internalType": "uint256",
              "name": "characterIndex",
              "type": "uint256"
            },
            {
              "internalType": "string",
              "name": "dexNumber",
              "type": "string"
            },
            {
              "internalType": "string",
              "name": "name",
              "type": "string"
            },
            {
              "internalType": "string",
              "name": "imageURI",
              "type": "string"
            },
            {
              "internalType": "uint256",
              "name": "hp",
              "type": "uint256"
            },
            {
              "internalType": "uint256",
              "name": "maxHp",
              "type": "uint256"
            },
            {
              "internalType": "uint256",
              "name": "attackDamage",
              "type": "uint256"
            }
          ],
          "internalType": "struct MyEpicGame.CharacterAttributes[]",
          "name": "",
          "type": "tuple[]"
        }
      ],
      "stateMutability": "view",
      "type": "function"
    },
    {
      "inputs": [
        {
          "internalType": "uint256",
          "name": "tokenId",
          "type": "uint256"
        }
      ],
      "name": "getApproved",
      "outputs": [
        {
          "internalType": "address",
          "name": "",
          "type": "address"
        }
      ],
      "stateMutability": "view",
      "type": "function"
    },
    {
      "inputs": [],
      "name": "getBigBoss",
      "outputs": [
        {
          "components": [
            {
              "internalType": "string",
              "name": "dexNumber",
              "type": "string"
            },
            {
              "internalType": "string",
              "name": "name",
              "type": "string"
            },
            {
              "internalType": "string",
              "name": "imageURI",
              "type": "string"
            },
            {
              "internalType": "uint256",
              "name": "hp",
              "type": "uint256"
            },
            {
              "internalType": "uint256",
              "name": "maxHp",
              "type": "uint256"
            },
            {
              "internalType": "uint256",
              "name": "attackDamage",
              "type": "uint256"
            }
          ],
          "internalType": "struct MyEpicGame.BigBoss",
          "name": "",
          "type": "tuple"
        }
      ],
      "stateMutability": "view",
      "type": "function"
    },
    {
      "inputs": [
        {
          "internalType": "uint256",
          "name": "_tokenId",
          "type": "uint256"
        }
      ],
      "name": "getMetadata",
      "outputs": [
        {
          "internalType": "string",
          "name": "",
          "type": "string"
        }
      ],
      "stateMutability": "view",
      "type": "function"
    },
    {
      "inputs": [
        {
          "internalType": "address",
          "name": "",
          "type": "address"
        }
      ],
      "name": "holders",
      "outputs": [
        {
          "internalType": "uint256",
          "name": "",
          "type": "uint256"
        }
      ],
      "stateMutability": "view",
      "type": "function"
    },
    {
      "inputs": [
        {
          "internalType": "address",
          "name": "owner",
          "type": "address"
        },
        {
          "internalType": "address",
          "name": "operator",
          "type": "address"
        }
      ],
      "name": "isApprovedForAll",
      "outputs": [
        {
          "internalType": "bool",
          "name": "",
          "type": "bool"
        }
      ],
      "stateMutability": "view",
      "type": "function"
    },
    {
      "inputs": [
        {
          "internalType": "uint256",
          "name": "_characterIndex",
          "type": "uint256"
        }
      ],
      "name": "mintCharacterNFT",
      "outputs": [],
      "stateMutability": "nonpayable",
      "type": "function"
    },
    {
      "inputs": [],
      "name": "name",
      "outputs": [
        {
          "internalType": "string",
          "name": "",
          "type": "string"
        }
      ],
      "stateMutability": "view",
      "type": "function"
    },
    {
      "inputs": [
        {
          "internalType": "uint256",
          "name": "tokenId",
          "type": "uint256"
        }
      ],
      "name": "ownerOf",
      "outputs": [
        {
          "internalType": "address",
          "name": "",
          "type": "address"
        }
      ],
      "stateMutability": "view",
      "type": "function"
    },
    {
      "inputs": [
        {
          "internalType": "address",
          "name": "from",
          "type": "address"
        },
        {
          "internalType": "address",
          "name": "to",
          "type": "address"
        },
        {
          "internalType": "uint256",
          "name": "tokenId",
          "type": "uint256"
        }
      ],
      "name": "safeTransferFrom",
      "outputs": [],
      "stateMutability": "nonpayable",
      "type": "function"
    },
    {
      "inputs": [
        {
          "internalType": "address",
          "name": "from",
          "type": "address"
        },
        {
          "internalType": "address",
          "name": "to",
          "type": "address"
        },
        {
          "internalType": "uint256",
          "name": "tokenId",
          "type": "uint256"
        },
        {
          "internalType": "bytes",
          "name": "_data",
          "type": "bytes"
        }
      ],
      "name": "safeTransferFrom",
      "outputs": [],
      "stateMutability": "nonpayable",
      "type": "function"
    },
    {
      "inputs": [
        {
          "internalType": "address",
          "name": "operator",
          "type": "address"
        },
        {
          "internalType": "bool",
          "name": "approved",
          "type": "bool"
        }
      ],
      "name": "setApprovalForAll",
      "outputs": [],
      "stateMutability": "nonpayable",
      "type": "function"
    },
    {
      "inputs": [
        {
          "internalType": "bytes4",
          "name": "interfaceId",
          "type": "bytes4"
        }
      ],
      "name": "supportsInterface",
      "outputs": [
        {
          "internalType": "bool",
          "name": "",
          "type": "bool"
        }
      ],
      "stateMutability": "view",
      "type": "function"
    },
    {
      "inputs": [],
      "name": "symbol",
      "outputs": [
        {
          "internalType": "string",
          "name": "",
          "type": "string"
        }
      ],
      "stateMutability": "view",
      "type": "function"
    },
    {
      "inputs": [
        {
          "internalType": "uint256",
          "name": "_tokenId",
          "type": "uint256"
        }
      ],
      "name": "tokenURI",
      "outputs": [
        {
          "internalType": "string",
          "name": "",
          "type": "string"
        }
      ],
      "stateMutability": "view",
      "type": "function"
    },
    {
      "inputs": [
        {
          "internalType": "address",
          "name": "from",
          "type": "address"
        },
        {
          "internalType": "address",
          "name": "to",
          "type": "address"
        },
        {
          "internalType": "uint256",
          "name": "tokenId",
          "type": "uint256"
        }
      ],
      "name": "transferFrom",
      "outputs": [],
      "stateMutability": "nonpayable",
      "type": "function"
    }
  ],
  "bytecode": "0x60806040523480156200001157600080fd5b506040516200600938038062006009833981810160405281019062000037919062000b72565b6040518060400160405280601281526020017f4275696c64737061636520506f6b656d6f6e00000000000000000000000000008152506040518060400160405280600481526020017f504b4d4e000000000000000000000000000000000000000000000000000000008152508160009080519060200190620000bb929190620008da565b508060019080519060200190620000d4929190620008da565b5050506040518060c00160405280868152602001858152602001848152602001838152602001838152602001828152506008600082015181600001908051906020019062000124929190620008da565b50602082015181600101908051906020019062000143929190620008da565b50604082015181600201908051906020019062000162929190620008da565b50606082015181600301556080820151816004015560a082015181600501559050506200026b6040518060400160405280601281526020017f5b426f73735d2048503a202573202d202573000000000000000000000000000081525060086003015460086002018054620001d69062000f42565b80601f0160208091040260200160405190810160405280929190818152602001828054620002049062000f42565b8015620002555780601f10620002295761010080835404028352916020019162000255565b820191906000526020600020905b8154815290600101906020018083116200023757829003601f168201915b50505050506200075c60201b62001efe1760201c565b60005b89518110156200074b5760076040518060e001604052808381526020018d8481518110620002c5577f4e487b7100000000000000000000000000000000000000000000000000000000600052603260045260246000fd5b602002602001015181526020018c84815181106200030c577f4e487b7100000000000000000000000000000000000000000000000000000000600052603260045260246000fd5b602002602001015181526020018b848151811062000353577f4e487b7100000000000000000000000000000000000000000000000000000000600052603260045260246000fd5b602002602001015181526020018a84815181106200039a577f4e487b7100000000000000000000000000000000000000000000000000000000600052603260045260246000fd5b602002602001015181526020018a8481518110620003e1577f4e487b7100000000000000000000000000000000000000000000000000000000600052603260045260246000fd5b6020026020010151815260200189848151811062000428577f4e487b7100000000000000000000000000000000000000000000000000000000600052603260045260246000fd5b6020026020010151815250908060018154018082558091505060019003906000526020600020906007020160009091909190915060008201518160000155602082015181600101908051906020019062000484929190620008da565b506040820151816002019080519060200190620004a3929190620008da565b506060820151816003019080519060200190620004c2929190620008da565b506080820151816004015560a0820151816005015560c082015181600601555050620007356040518060400160405280601081526020017f5b25735d2048503a202573202d202573000000000000000000000000000000008152506007838154811062000558577f4e487b7100000000000000000000000000000000000000000000000000000000600052603260045260246000fd5b90600052602060002090600702016002018054620005769062000f42565b80601f0160208091040260200160405190810160405280929190818152602001828054620005a49062000f42565b8015620005f55780601f10620005c957610100808354040283529160200191620005f5565b820191906000526020600020905b815481529060010190602001808311620005d757829003601f168201915b50505050506007848154811062000635577f4e487b7100000000000000000000000000000000000000000000000000000000600052603260045260246000fd5b9060005260206000209060070201600401546007858154811062000682577f4e487b7100000000000000000000000000000000000000000000000000000000600052603260045260246000fd5b90600052602060002090600702016003018054620006a09062000f42565b80601f0160208091040260200160405190810160405280929190818152602001828054620006ce9062000f42565b80156200071f5780601f10620006f3576101008083540402835291602001916200071f565b820191906000526020600020905b8154815290600101906020018083116200070157829003601f168201915b50505050506200080560201b62001f9d1760201c565b8080620007429062000fae565b9150506200026e565b5050505050505050505050620010b4565b62000800838383604051602401620007779392919062000dde565b6040516020818303038152906040527fa3f5c739000000000000000000000000000000000000000000000000000000007bffffffffffffffffffffffffffffffffffffffffffffffffffffffff19166020820180517bffffffffffffffffffffffffffffffffffffffffffffffffffffffff8381831617835250505050620008b160201b60201c565b505050565b620008ab8484848460405160240162000822949392919062000d7c565b6040516020818303038152906040527f8d142cdd000000000000000000000000000000000000000000000000000000007bffffffffffffffffffffffffffffffffffffffffffffffffffffffff19166020820180517bffffffffffffffffffffffffffffffffffffffffffffffffffffffff8381831617835250505050620008b160201b60201c565b50505050565b60008151905060006a636f6e736f6c652e6c6f679050602083016000808483855afa5050505050565b828054620008e89062000f42565b90600052602060002090601f0160209004810192826200090c576000855562000958565b82601f106200092757805160ff191683800117855562000958565b8280016001018555821562000958579182015b82811115620009575782518255916020019190600101906200093a565b5b5090506200096791906200096b565b5090565b5b80821115620009865760008160009055506001016200096c565b5090565b6000620009a16200099b8462000e52565b62000e29565b90508083825260208201905082856020860282011115620009c157600080fd5b60005b8581101562000a1057815167ffffffffffffffff811115620009e557600080fd5b808601620009f4898262000b2e565b85526020850194506020840193505050600181019050620009c4565b5050509392505050565b600062000a3162000a2b8462000e81565b62000e29565b9050808382526020820190508285602086028201111562000a5157600080fd5b60005b8581101562000a85578162000a6a888262000b5b565b84526020840193506020830192505060018101905062000a54565b5050509392505050565b600062000aa662000aa08462000eb0565b62000e29565b90508281526020810184848401111562000abf57600080fd5b62000acc84828562000f0c565b509392505050565b600082601f83011262000ae657600080fd5b815162000af88482602086016200098a565b91505092915050565b600082601f83011262000b1357600080fd5b815162000b2584826020860162000a1a565b91505092915050565b600082601f83011262000b4057600080fd5b815162000b5284826020860162000a8f565b91505092915050565b60008151905062000b6c816200109a565b92915050565b6000806000806000806000806000806101408b8d03121562000b9357600080fd5b60008b015167ffffffffffffffff81111562000bae57600080fd5b62000bbc8d828e0162000ad4565b9a505060208b015167ffffffffffffffff81111562000bda57600080fd5b62000be88d828e0162000ad4565b99505060408b015167ffffffffffffffff81111562000c0657600080fd5b62000c148d828e0162000ad4565b98505060608b015167ffffffffffffffff81111562000c3257600080fd5b62000c408d828e0162000b01565b97505060808b015167ffffffffffffffff81111562000c5e57600080fd5b62000c6c8d828e0162000b01565b96505060a08b015167ffffffffffffffff81111562000c8a57600080fd5b62000c988d828e0162000b2e565b95505060c08b015167ffffffffffffffff81111562000cb657600080fd5b62000cc48d828e0162000b2e565b94505060e08b015167ffffffffffffffff81111562000ce257600080fd5b62000cf08d828e0162000b2e565b93505061010062000d048d828e0162000b5b565b92505061012062000d188d828e0162000b5b565b9150509295989b9194979a5092959850565b600062000d378262000ee6565b62000d43818562000ef1565b935062000d5581856020860162000f0c565b62000d608162001089565b840191505092915050565b62000d768162000f02565b82525050565b6000608082019050818103600083015262000d98818762000d2a565b9050818103602083015262000dae818662000d2a565b905062000dbf604083018562000d6b565b818103606083015262000dd3818462000d2a565b905095945050505050565b6000606082019050818103600083015262000dfa818662000d2a565b905062000e0b602083018562000d6b565b818103604083015262000e1f818462000d2a565b9050949350505050565b600062000e3562000e48565b905062000e43828262000f78565b919050565b6000604051905090565b600067ffffffffffffffff82111562000e705762000e6f6200105a565b5b602082029050602081019050919050565b600067ffffffffffffffff82111562000e9f5762000e9e6200105a565b5b602082029050602081019050919050565b600067ffffffffffffffff82111562000ece5762000ecd6200105a565b5b62000ed98262001089565b9050602081019050919050565b600081519050919050565b600082825260208201905092915050565b6000819050919050565b60005b8381101562000f2c57808201518184015260208101905062000f0f565b8381111562000f3c576000848401525b50505050565b6000600282049050600182168062000f5b57607f821691505b6020821081141562000f725762000f716200102b565b5b50919050565b62000f838262001089565b810181811067ffffffffffffffff8211171562000fa55762000fa46200105a565b5b80604052505050565b600062000fbb8262000f02565b91507fffffffffffffffffffffffffffffffffffffffffffffffffffffffffffffffff82141562000ff15762000ff062000ffc565b5b600182019050919050565b7f4e487b7100000000000000000000000000000000000000000000000000000000600052601160045260246000fd5b7f4e487b7100000000000000000000000000000000000000000000000000000000600052602260045260246000fd5b7f4e487b7100000000000000000000000000000000000000000000000000000000600052604160045260246000fd5b6000601f19601f8301169050919050565b620010a58162000f02565b8114620010b157600080fd5b50565b614f4580620010c46000396000f3fe608060405234801561001057600080fd5b50600436106101425760003560e01c8063a22cb465116100b8578063c87b56dd1161007c578063c87b56dd1461038e578063c8cf27f4146103be578063d05dcc6a146103dc578063d4f24c5b14610412578063e985e9c51461041c578063f8b81ef71461044c57610142565b8063a22cb465146102e5578063a574cea414610301578063a9c3267914610331578063b88d4fde14610354578063b953084e1461037057610142565b806318a5bbdc1161010a57806318a5bbdc146101ff57806323b872dd1461022f57806342842e0e1461024b5780636352211e1461026757806370a082311461029757806395d89b41146102c757610142565b806301ffc9a7146101475780630665f9611461017757806306fdde0314610195578063081812fc146101b3578063095ea7b3146101e3575b600080fd5b610161600480360381019061015c9190613334565b610468565b60405161016e9190613d7a565b60405180910390f35b61017f61054a565b60405161018c919061412f565b60405180910390f35b61019d610738565b6040516101aa9190613d95565b60405180910390f35b6101cd60048036038101906101c89190613386565b6107ca565b6040516101da9190613cba565b60405180910390f35b6101fd60048036038101906101f891906132f8565b61084f565b005b6102196004803603810190610214919061318d565b610967565b6040516102269190614173565b60405180910390f35b610249600480360381019061024491906131f2565b61097f565b005b610265600480360381019061026091906131f2565b6109df565b005b610281600480360381019061027c9190613386565b6109ff565b60405161028e9190613cba565b60405180910390f35b6102b160048036038101906102ac919061318d565b610ab1565b6040516102be9190614173565b60405180910390f35b6102cf610b69565b6040516102dc9190613d95565b60405180910390f35b6102ff60048036038101906102fa91906132bc565b610bfb565b005b61031b60048036038101906103169190613386565b610c11565b6040516103289190613d95565b60405180910390f35b610339610e7f565b60405161034b96959493929190613db7565b60405180910390f35b61036e60048036038101906103699190613241565b611041565b005b6103786110a3565b6040516103859190613d58565b60405180910390f35b6103a860048036038101906103a39190613386565b6112e0565b6040516103b59190613d95565b60405180910390f35b6103c6611325565b6040516103d39190614151565b60405180910390f35b6103f660048036038101906103f19190613386565b61158f565b604051610409979695949392919061418e565b60405180910390f35b61041a611769565b005b610436600480360381019061043191906131b6565b611af9565b6040516104439190613d7a565b60405180910390f35b61046660048036038101906104619190613386565b611b8d565b005b60007f80ac58cd000000000000000000000000000000000000000000000000000000007bffffffffffffffffffffffffffffffffffffffffffffffffffffffff1916827bffffffffffffffffffffffffffffffffffffffffffffffffffffffff1916148061053357507f5b5e139f000000000000000000000000000000000000000000000000000000007bffffffffffffffffffffffffffffffffffffffffffffffffffffffff1916827bffffffffffffffffffffffffffffffffffffffffffffffffffffffff1916145b8061054357506105428261203f565b5b9050919050565b610552612fa6565b60086040518060c001604052908160008201805461056f906144e9565b80601f016020809104026020016040519081016040528092919081815260200182805461059b906144e9565b80156105e85780601f106105bd576101008083540402835291602001916105e8565b820191906000526020600020905b8154815290600101906020018083116105cb57829003601f168201915b50505050508152602001600182018054610601906144e9565b80601f016020809104026020016040519081016040528092919081815260200182805461062d906144e9565b801561067a5780601f1061064f5761010080835404028352916020019161067a565b820191906000526020600020905b81548152906001019060200180831161065d57829003601f168201915b50505050508152602001600282018054610693906144e9565b80601f01602080910402602001604051908101604052809291908181526020018280546106bf906144e9565b801561070c5780601f106106e15761010080835404028352916020019161070c565b820191906000526020600020905b8154815290600101906020018083116106ef57829003601f168201915b505050505081526020016003820154815260200160048201548152602001600582015481525050905090565b606060008054610747906144e9565b80601f0160208091040260200160405190810160405280929190818152602001828054610773906144e9565b80156107c05780601f10610795576101008083540402835291602001916107c0565b820191906000526020600020905b8154815290600101906020018083116107a357829003601f168201915b5050505050905090565b60006107d5826120a9565b610814576040517f08c379a000000000000000000000000000000000000000000000000000000000815260040161080b9061406f565b60405180910390fd5b6004600083815260200190815260200160002060009054906101000a900473ffffffffffffffffffffffffffffffffffffffff169050919050565b600061085a826109ff565b90508073ffffffffffffffffffffffffffffffffffffffff168373ffffffffffffffffffffffffffffffffffffffff1614156108cb576040517f08c379a00000000000000000000000000000000000000000000000000000000081526004016108c2906140af565b60405180910390fd5b8073ffffffffffffffffffffffffffffffffffffffff166108ea612115565b73ffffffffffffffffffffffffffffffffffffffff161480610919575061091881610913612115565b611af9565b5b610958576040517f08c379a000000000000000000000000000000000000000000000000000000000815260040161094f90613fef565b60405180910390fd5b610962838361211d565b505050565b600e6020528060005260406000206000915090505481565b61099061098a612115565b826121d6565b6109cf576040517f08c379a00000000000000000000000000000000000000000000000000000000081526004016109c6906140cf565b60405180910390fd5b6109da8383836122b4565b505050565b6109fa83838360405180602001604052806000815250611041565b505050565b6000806002600084815260200190815260200160002060009054906101000a900473ffffffffffffffffffffffffffffffffffffffff169050600073ffffffffffffffffffffffffffffffffffffffff168173ffffffffffffffffffffffffffffffffffffffff161415610aa8576040517f08c379a0000000000000000000000000000000000000000000000000000000008152600401610a9f9061402f565b60405180910390fd5b80915050919050565b60008073ffffffffffffffffffffffffffffffffffffffff168273ffffffffffffffffffffffffffffffffffffffff161415610b22576040517f08c379a0000000000000000000000000000000000000000000000000000000008152600401610b199061400f565b60405180910390fd5b600360008373ffffffffffffffffffffffffffffffffffffffff1673ffffffffffffffffffffffffffffffffffffffff168152602001908152602001600020549050919050565b606060018054610b78906144e9565b80601f0160208091040260200160405190810160405280929190818152602001828054610ba4906144e9565b8015610bf15780601f10610bc657610100808354040283529160200191610bf1565b820191906000526020600020905b815481529060010190602001808311610bd457829003601f168201915b5050505050905090565b610c0d610c06612115565b8383612510565b5050565b60606000600f60008481526020019081526020016000206040518060e001604052908160008201548152602001600182018054610c4d906144e9565b80601f0160208091040260200160405190810160405280929190818152602001828054610c79906144e9565b8015610cc65780601f10610c9b57610100808354040283529160200191610cc6565b820191906000526020600020905b815481529060010190602001808311610ca957829003601f168201915b50505050508152602001600282018054610cdf906144e9565b80601f0160208091040260200160405190810160405280929190818152602001828054610d0b906144e9565b8015610d585780601f10610d2d57610100808354040283529160200191610d58565b820191906000526020600020905b815481529060010190602001808311610d3b57829003601f168201915b50505050508152602001600382018054610d71906144e9565b80601f0160208091040260200160405190810160405280929190818152602001828054610d9d906144e9565b8015610dea5780601f10610dbf57610100808354040283529160200191610dea565b820191906000526020600020905b815481529060010190602001808311610dcd57829003601f168201915b50505050508152602001600482015481526020016005820154815260200160068201548152505090508060400151610e218461267d565b82606001518360200151610e38856080015161267d565b610e458660a0015161267d565b610e528760c0015161267d565b604051602001610e689796959493929190613b78565b604051602081830303815290604052915050919050565b6008806000018054610e90906144e9565b80601f0160208091040260200160405190810160405280929190818152602001828054610ebc906144e9565b8015610f095780601f10610ede57610100808354040283529160200191610f09565b820191906000526020600020905b815481529060010190602001808311610eec57829003601f168201915b505050505090806001018054610f1e906144e9565b80601f0160208091040260200160405190810160405280929190818152602001828054610f4a906144e9565b8015610f975780601f10610f6c57610100808354040283529160200191610f97565b820191906000526020600020905b815481529060010190602001808311610f7a57829003601f168201915b505050505090806002018054610fac906144e9565b80601f0160208091040260200160405190810160405280929190818152602001828054610fd8906144e9565b80156110255780601f10610ffa57610100808354040283529160200191611025565b820191906000526020600020905b81548152906001019060200180831161100857829003601f168201915b5050505050908060030154908060040154908060050154905086565b61105261104c612115565b836121d6565b611091576040517f08c379a0000000000000000000000000000000000000000000000000000000008152600401611088906140cf565b60405180910390fd5b61109d8484848461282a565b50505050565b60606007805480602002602001604051908101604052809291908181526020016000905b828210156112d757838290600052602060002090600702016040518060e001604052908160008201548152602001600182018054611104906144e9565b80601f0160208091040260200160405190810160405280929190818152602001828054611130906144e9565b801561117d5780601f106111525761010080835404028352916020019161117d565b820191906000526020600020905b81548152906001019060200180831161116057829003601f168201915b50505050508152602001600282018054611196906144e9565b80601f01602080910402602001604051908101604052809291908181526020018280546111c2906144e9565b801561120f5780601f106111e45761010080835404028352916020019161120f565b820191906000526020600020905b8154815290600101906020018083116111f257829003601f168201915b50505050508152602001600382018054611228906144e9565b80601f0160208091040260200160405190810160405280929190818152602001828054611254906144e9565b80156112a15780601f10611276576101008083540402835291602001916112a1565b820191906000526020600020905b81548152906001019060200180831161128457829003601f168201915b505050505081526020016004820154815260200160058201548152602001600682015481525050815260200190600101906110c7565b50505050905090565b606060006112f56112f084610c11565b612886565b905060008160405160200161130a9190613c98565b60405160208183030381529060405290508092505050919050565b61132d612fdc565b6000600e60003373ffffffffffffffffffffffffffffffffffffffff1673ffffffffffffffffffffffffffffffffffffffff168152602001908152602001600020549050600081111561157e57600f60008281526020019081526020016000206040518060e0016040529081600082015481526020016001820180546113b2906144e9565b80601f01602080910402602001604051908101604052809291908181526020018280546113de906144e9565b801561142b5780601f106114005761010080835404028352916020019161142b565b820191906000526020600020905b81548152906001019060200180831161140e57829003601f168201915b50505050508152602001600282018054611444906144e9565b80601f0160208091040260200160405190810160405280929190818152602001828054611470906144e9565b80156114bd5780601f10611492576101008083540402835291602001916114bd565b820191906000526020600020905b8154815290600101906020018083116114a057829003601f168201915b505050505081526020016003820180546114d6906144e9565b80601f0160208091040260200160405190810160405280929190818152602001828054611502906144e9565b801561154f5780601f106115245761010080835404028352916020019161154f565b820191906000526020600020905b81548152906001019060200180831161153257829003601f168201915b50505050508152602001600482015481526020016005820154815260200160068201548152505091505061158c565b611586612fdc565b80925050505b90565b600f6020528060005260406000206000915090508060000154908060010180546115b8906144e9565b80601f01602080910402602001604051908101604052809291908181526020018280546115e4906144e9565b80156116315780601f1061160657610100808354040283529160200191611631565b820191906000526020600020905b81548152906001019060200180831161161457829003601f168201915b505050505090806002018054611646906144e9565b80601f0160208091040260200160405190810160405280929190818152602001828054611672906144e9565b80156116bf5780601f10611694576101008083540402835291602001916116bf565b820191906000526020600020905b8154815290600101906020018083116116a257829003601f168201915b5050505050908060030180546116d4906144e9565b80601f0160208091040260200160405190810160405280929190818152602001828054611700906144e9565b801561174d5780601f106117225761010080835404028352916020019161174d565b820191906000526020600020905b81548152906001019060200180831161173057829003601f168201915b5050505050908060040154908060050154908060060154905087565b6000600e60003373ffffffffffffffffffffffffffffffffffffffff1673ffffffffffffffffffffffffffffffffffffffff1681526020019081526020016000205490506000600f6000838152602001908152602001600020905061187c6040518060600160405280603c8152602001614ed4603c91398260020180546117ef906144e9565b80601f016020809104026020016040519081016040528092919081815260200182805461181b906144e9565b80156118685780601f1061183d57610100808354040283529160200191611868565b820191906000526020600020905b81548152906001019060200180831161184b57829003601f168201915b505050505083600401548460060154612a25565b6119546040518060400160405280601b81526020017f426f73732025732068617320257320485020616e642025732041440000000000815250600860010180546118c5906144e9565b80601f01602080910402602001604051908101604052809291908181526020018280546118f1906144e9565b801561193e5780601f106119135761010080835404028352916020019161193e565b820191906000526020600020905b81548152906001019060200180831161192157829003601f168201915b5050505050600860030154600860050154612a25565b600081600401541161199b576040517f08c379a0000000000000000000000000000000000000000000000000000000008152600401611992906140ef565b60405180910390fd5b6000600860030154116119e3576040517f08c379a00000000000000000000000000000000000000000000000000000000081526004016119da9061410f565b60405180910390fd5b80600601546008600301541015611a04576000600860030181905550611a25565b806006015460086003016000828254611a1d91906143ff565b925050819055505b60086005015481600401541015611a455760008160040181905550611a66565b600860050154816004016000828254611a5e91906143ff565b925050819055505b611a8d604051806060016040528060258152602001614e4760259139600860030154612ac7565b611ab3604051806060016040528060288152602001614eac602891398260040154612ac7565b7f24596b044f9390b6f54a6470706bb6795f0a3a4b6d148ca80241481a5f60938c6008600301548260040154604051611aed929190614212565b60405180910390a15050565b6000600560008473ffffffffffffffffffffffffffffffffffffffff1673ffffffffffffffffffffffffffffffffffffffff16815260200190815260200160002060008373ffffffffffffffffffffffffffffffffffffffff1673ffffffffffffffffffffffffffffffffffffffff16815260200190815260200160002060009054906101000a900460ff16905092915050565b611b976006612b63565b6000611ba36006612b79565b9050611baf3382612b87565b600060078381548110611beb577f4e487b7100000000000000000000000000000000000000000000000000000000600052603260045260246000fd5b90600052602060002090600702016040518060e001604052908160008201548152602001600182018054611c1e906144e9565b80601f0160208091040260200160405190810160405280929190818152602001828054611c4a906144e9565b8015611c975780601f10611c6c57610100808354040283529160200191611c97565b820191906000526020600020905b815481529060010190602001808311611c7a57829003601f168201915b50505050508152602001600282018054611cb0906144e9565b80601f0160208091040260200160405190810160405280929190818152602001828054611cdc906144e9565b8015611d295780601f10611cfe57610100808354040283529160200191611d29565b820191906000526020600020905b815481529060010190602001808311611d0c57829003601f168201915b50505050508152602001600382018054611d42906144e9565b80601f0160208091040260200160405190810160405280929190818152602001828054611d6e906144e9565b8015611dbb5780601f10611d9057610100808354040283529160200191611dbb565b820191906000526020600020905b815481529060010190602001808311611d9e57829003601f168201915b505050505081526020016004820154815260200160058201548152602001600682015481525050905080600f6000848152602001908152602001600020600082015181600001556020820151816001019080519060200190611e1e929190613019565b506040820151816002019080519060200190611e3b929190613019565b506060820151816003019080519060200190611e58929190613019565b506080820151816004015560a0820151816005015560c0820151816006015590505081600e60003373ffffffffffffffffffffffffffffffffffffffff1673ffffffffffffffffffffffffffffffffffffffff168152602001908152602001600020819055507f4bc303fd457a97b4691b9af582ce71868a3d258638c8d4f8c60988a0f0bfb8cd338385604051611ef193929190613d21565b60405180910390a1505050565b611f98838383604051602401611f1693929190613f0a565b6040516020818303038152906040527fa3f5c739000000000000000000000000000000000000000000000000000000007bffffffffffffffffffffffffffffffffffffffffffffffffffffffff19166020820180517bffffffffffffffffffffffffffffffffffffffffffffffffffffffff8381831617835250505050612ba5565b505050565b61203984848484604051602401611fb79493929190613e2d565b6040516020818303038152906040527f8d142cdd000000000000000000000000000000000000000000000000000000007bffffffffffffffffffffffffffffffffffffffffffffffffffffffff19166020820180517bffffffffffffffffffffffffffffffffffffffffffffffffffffffff8381831617835250505050612ba5565b50505050565b60007f01ffc9a7000000000000000000000000000000000000000000000000000000007bffffffffffffffffffffffffffffffffffffffffffffffffffffffff1916827bffffffffffffffffffffffffffffffffffffffffffffffffffffffff1916149050919050565b60008073ffffffffffffffffffffffffffffffffffffffff166002600084815260200190815260200160002060009054906101000a900473ffffffffffffffffffffffffffffffffffffffff1673ffffffffffffffffffffffffffffffffffffffff1614159050919050565b600033905090565b816004600083815260200190815260200160002060006101000a81548173ffffffffffffffffffffffffffffffffffffffff021916908373ffffffffffffffffffffffffffffffffffffffff160217905550808273ffffffffffffffffffffffffffffffffffffffff16612190836109ff565b73ffffffffffffffffffffffffffffffffffffffff167f8c5be1e5ebec7d5bd14f71427d1e84f3dd0314c0f7b2291e5b200ac8c7c3b92560405160405180910390a45050565b60006121e1826120a9565b612220576040517f08c379a000000000000000000000000000000000000000000000000000000000815260040161221790613fcf565b60405180910390fd5b600061222b836109ff565b90508073ffffffffffffffffffffffffffffffffffffffff168473ffffffffffffffffffffffffffffffffffffffff16148061229a57508373ffffffffffffffffffffffffffffffffffffffff16612282846107ca565b73ffffffffffffffffffffffffffffffffffffffff16145b806122ab57506122aa8185611af9565b5b91505092915050565b8273ffffffffffffffffffffffffffffffffffffffff166122d4826109ff565b73ffffffffffffffffffffffffffffffffffffffff161461232a576040517f08c379a00000000000000000000000000000000000000000000000000000000081526004016123219061408f565b60405180910390fd5b600073ffffffffffffffffffffffffffffffffffffffff168273ffffffffffffffffffffffffffffffffffffffff16141561239a576040517f08c379a000000000000000000000000000000000000000000000000000000000815260040161239190613f8f565b60405180910390fd5b6123a5838383612bce565b6123b060008261211d565b6001600360008573ffffffffffffffffffffffffffffffffffffffff1673ffffffffffffffffffffffffffffffffffffffff168152602001908152602001600020600082825461240091906143ff565b925050819055506001600360008473ffffffffffffffffffffffffffffffffffffffff1673ffffffffffffffffffffffffffffffffffffffff1681526020019081526020016000206000828254612457919061431e565b92505081905550816002600083815260200190815260200160002060006101000a81548173ffffffffffffffffffffffffffffffffffffffff021916908373ffffffffffffffffffffffffffffffffffffffff160217905550808273ffffffffffffffffffffffffffffffffffffffff168473ffffffffffffffffffffffffffffffffffffffff167fddf252ad1be2c89b69c2b068fc378daa952ba7f163c4a11628f55a4df523b3ef60405160405180910390a4505050565b8173ffffffffffffffffffffffffffffffffffffffff168373ffffffffffffffffffffffffffffffffffffffff16141561257f576040517f08c379a000000000000000000000000000000000000000000000000000000000815260040161257690613faf565b60405180910390fd5b80600560008573ffffffffffffffffffffffffffffffffffffffff1673ffffffffffffffffffffffffffffffffffffffff16815260200190815260200160002060008473ffffffffffffffffffffffffffffffffffffffff1673ffffffffffffffffffffffffffffffffffffffff16815260200190815260200160002060006101000a81548160ff0219169083151502179055508173ffffffffffffffffffffffffffffffffffffffff168373ffffffffffffffffffffffffffffffffffffffff167f17307eab39ab6107e8899845ad3d59bd9653f200f220920489ca2b5937696c31836040516126709190613d7a565b60405180910390a3505050565b606060008214156126c5576040518060400160405280600181526020017f30000000000000000000000000000000000000000000000000000000000000008152509050612825565b600082905060005b600082146126f75780806126e09061454c565b915050600a826126f09190614374565b91506126cd565b60008167ffffffffffffffff811115612739577f4e487b7100000000000000000000000000000000000000000000000000000000600052604160045260246000fd5b6040519080825280601f01601f19166020018201604052801561276b5781602001600182028036833780820191505090505b5090505b6000851461281e5760018261278491906143ff565b9150600a856127939190614595565b603061279f919061431e565b60f81b8183815181106127db577f4e487b7100000000000000000000000000000000000000000000000000000000600052603260045260246000fd5b60200101907effffffffffffffffffffffffffffffffffffffffffffffffffffffffffffff1916908160001a905350600a856128179190614374565b945061276f565b8093505050505b919050565b6128358484846122b4565b61284184848484612bd3565b612880576040517f08c379a000000000000000000000000000000000000000000000000000000000815260040161287790613f4f565b60405180910390fd5b50505050565b60606000825114156128a957604051806020016040528060008152509050612a20565b6000604051806060016040528060408152602001614e6c60409139905060006003600285516128d8919061431e565b6128e29190614374565b60046128ee91906143a5565b905060006020826128ff919061431e565b67ffffffffffffffff81111561293e577f4e487b7100000000000000000000000000000000000000000000000000000000600052604160045260246000fd5b6040519080825280601f01601f1916602001820160405280156129705781602001600182028036833780820191505090505b509050818152600183018586518101602084015b818310156129df576003830192508251603f8160121c168501518253600182019150603f81600c1c168501518253600182019150603f8160061c168501518253600182019150603f8116850151825360018201915050612984565b6003895106600181146129f95760028114612a0957612a14565b613d3d60f01b6002830352612a14565b603d60f81b60018303525b50505050508093505050505b919050565b612ac184848484604051602401612a3f9493929190613e87565b6040516020818303038152906040527fd5cf17d0000000000000000000000000000000000000000000000000000000007bffffffffffffffffffffffffffffffffffffffffffffffffffffffff19166020820180517bffffffffffffffffffffffffffffffffffffffffffffffffffffffff8381831617835250505050612ba5565b50505050565b612b5f8282604051602401612add929190613eda565b6040516020818303038152906040527f9710a9d0000000000000000000000000000000000000000000000000000000007bffffffffffffffffffffffffffffffffffffffffffffffffffffffff19166020820180517bffffffffffffffffffffffffffffffffffffffffffffffffffffffff8381831617835250505050612ba5565b5050565b6001816000016000828254019250508190555050565b600081600001549050919050565b612ba1828260405180602001604052806000815250612d6a565b5050565b60008151905060006a636f6e736f6c652e6c6f679050602083016000808483855afa5050505050565b505050565b6000612bf48473ffffffffffffffffffffffffffffffffffffffff16612dc5565b15612d5d578373ffffffffffffffffffffffffffffffffffffffff1663150b7a02612c1d612115565b8786866040518563ffffffff1660e01b8152600401612c3f9493929190613cd5565b602060405180830381600087803b158015612c5957600080fd5b505af1925050508015612c8a57506040513d601f19601f82011682018060405250810190612c87919061335d565b60015b612d0d573d8060008114612cba576040519150601f19603f3d011682016040523d82523d6000602084013e612cbf565b606091505b50600081511415612d05576040517f08c379a0000000000000000000000000000000000000000000000000000000008152600401612cfc90613f4f565b60405180910390fd5b805181602001fd5b63150b7a0260e01b7bffffffffffffffffffffffffffffffffffffffffffffffffffffffff1916817bffffffffffffffffffffffffffffffffffffffffffffffffffffffff191614915050612d62565b600190505b949350505050565b612d748383612dd8565b612d816000848484612bd3565b612dc0576040517f08c379a0000000000000000000000000000000000000000000000000000000008152600401612db790613f4f565b60405180910390fd5b505050565b600080823b905060008111915050919050565b600073ffffffffffffffffffffffffffffffffffffffff168273ffffffffffffffffffffffffffffffffffffffff161415612e48576040517f08c379a0000000000000000000000000000000000000000000000000000000008152600401612e3f9061404f565b60405180910390fd5b612e51816120a9565b15612e91576040517f08c379a0000000000000000000000000000000000000000000000000000000008152600401612e8890613f6f565b60405180910390fd5b612e9d60008383612bce565b6001600360008473ffffffffffffffffffffffffffffffffffffffff1673ffffffffffffffffffffffffffffffffffffffff1681526020019081526020016000206000828254612eed919061431e565b92505081905550816002600083815260200190815260200160002060006101000a81548173ffffffffffffffffffffffffffffffffffffffff021916908373ffffffffffffffffffffffffffffffffffffffff160217905550808273ffffffffffffffffffffffffffffffffffffffff16600073ffffffffffffffffffffffffffffffffffffffff167fddf252ad1be2c89b69c2b068fc378daa952ba7f163c4a11628f55a4df523b3ef60405160405180910390a45050565b6040518060c001604052806060815260200160608152602001606081526020016000815260200160008152602001600081525090565b6040518060e00160405280600081526020016060815260200160608152602001606081526020016000815260200160008152602001600081525090565b828054613025906144e9565b90600052602060002090601f016020900481019282613047576000855561308e565b82601f1061306057805160ff191683800117855561308e565b8280016001018555821561308e579182015b8281111561308d578251825591602001919060010190613072565b5b50905061309b919061309f565b5090565b5b808211156130b85760008160009055506001016130a0565b5090565b60006130cf6130ca84614260565b61423b565b9050828152602081018484840111156130e757600080fd5b6130f28482856144a7565b509392505050565b60008135905061310981614dea565b92915050565b60008135905061311e81614e01565b92915050565b60008135905061313381614e18565b92915050565b60008151905061314881614e18565b92915050565b600082601f83011261315f57600080fd5b813561316f8482602086016130bc565b91505092915050565b60008135905061318781614e2f565b92915050565b60006020828403121561319f57600080fd5b60006131ad848285016130fa565b91505092915050565b600080604083850312156131c957600080fd5b60006131d7858286016130fa565b92505060206131e8858286016130fa565b9150509250929050565b60008060006060848603121561320757600080fd5b6000613215868287016130fa565b9350506020613226868287016130fa565b925050604061323786828701613178565b9150509250925092565b6000806000806080858703121561325757600080fd5b6000613265878288016130fa565b9450506020613276878288016130fa565b935050604061328787828801613178565b925050606085013567ffffffffffffffff8111156132a457600080fd5b6132b08782880161314e565b91505092959194509250565b600080604083850312156132cf57600080fd5b60006132dd858286016130fa565b92505060206132ee8582860161310f565b9150509250929050565b6000806040838503121561330b57600080fd5b6000613319858286016130fa565b925050602061332a85828601613178565b9150509250929050565b60006020828403121561334657600080fd5b600061335484828501613124565b91505092915050565b60006020828403121561336f57600080fd5b600061337d84828501613139565b91505092915050565b60006020828403121561339857600080fd5b60006133a684828501613178565b91505092915050565b60006133bb8383613a06565b905092915050565b6133cc81614433565b82525050565b60006133dd826142a1565b6133e781856142cf565b9350836020820285016133f985614291565b8060005b85811015613435578484038952815161341685826133af565b9450613421836142c2565b925060208a019950506001810190506133fd565b50829750879550505050505092915050565b61345081614445565b82525050565b6000613461826142ac565b61346b81856142e0565b935061347b8185602086016144b6565b61348481614682565b840191505092915050565b600061349a826142b7565b6134a481856142f1565b93506134b48185602086016144b6565b6134bd81614682565b840191505092915050565b60006134d3826142b7565b6134dd8185614302565b93506134ed8185602086016144b6565b6134f681614682565b840191505092915050565b600061350c826142b7565b6135168185614313565b93506135268185602086016144b6565b80840191505092915050565b600061353f600283614313565b915061354a82614693565b600282019050919050565b6000613562600d83614313565b915061356d826146bc565b600d82019050919050565b6000613585603283614302565b9150613590826146e5565b604082019050919050565b60006135a8600283614313565b91506135b382614734565b600282019050919050565b60006135cb601c83614302565b91506135d68261475d565b602082019050919050565b60006135ee605483614313565b91506135f982614786565b605482019050919050565b6000613611600383614313565b915061361c826147fb565b600382019050919050565b6000613634602483614302565b915061363f82614824565b604082019050919050565b6000613657601983614302565b915061366282614873565b602082019050919050565b600061367a603c83614313565b91506136858261489c565b603c82019050919050565b600061369d602383614313565b91506136a8826148eb565b602382019050919050565b60006136c0600883614313565b91506136cb8261493a565b600882019050919050565b60006136e3602c83614302565b91506136ee82614963565b604082019050919050565b6000613706603883614302565b9150613711826149b2565b604082019050919050565b6000613729602a83614302565b915061373482614a01565b604082019050919050565b600061374c602983614302565b915061375782614a50565b604082019050919050565b600061376f600483614313565b915061377a82614a9f565b600482019050919050565b6000613792600983614313565b915061379d82614ac8565b600982019050919050565b60006137b5602083614302565b91506137c082614af1565b602082019050919050565b60006137d8600183614313565b91506137e382614b1a565b600182019050919050565b60006137fb602c83614302565b915061380682614b43565b604082019050919050565b600061381e602983614302565b915061382982614b92565b604082019050919050565b6000613841600183614313565b915061384c82614be1565b600182019050919050565b6000613864600183614313565b915061386f82614c0a565b600182019050919050565b6000613887602183614302565b915061389282614c33565b604082019050919050565b60006138aa601d83614313565b91506138b582614c82565b601d82019050919050565b60006138cd603183614302565b91506138d882614cab565b604082019050919050565b60006138f0602883614302565b91506138fb82614cfa565b604082019050919050565b6000613913602883614302565b915061391e82614d49565b604082019050919050565b6000613936601b83614313565b915061394182614d98565b601b82019050919050565b6000613959600e83614313565b915061396482614dc1565b600e82019050919050565b600060c083016000830151848203600086015261398c828261348f565b915050602083015184820360208601526139a6828261348f565b915050604083015184820360408601526139c0828261348f565b91505060608301516139d56060860182613b5a565b5060808301516139e86080860182613b5a565b5060a08301516139fb60a0860182613b5a565b508091505092915050565b600060e083016000830151613a1e6000860182613b5a565b5060208301518482036020860152613a36828261348f565b91505060408301518482036040860152613a50828261348f565b91505060608301518482036060860152613a6a828261348f565b9150506080830151613a7f6080860182613b5a565b5060a0830151613a9260a0860182613b5a565b5060c0830151613aa560c0860182613b5a565b508091505092915050565b600060e083016000830151613ac86000860182613b5a565b5060208301518482036020860152613ae0828261348f565b91505060408301518482036040860152613afa828261348f565b91505060608301518482036060860152613b14828261348f565b9150506080830151613b296080860182613b5a565b5060a0830151613b3c60a0860182613b5a565b5060c0830151613b4f60c0860182613b5a565b508091505092915050565b613b638161449d565b82525050565b613b728161449d565b82525050565b6000613b8382613834565b9150613b8e826136b3565b9150613b9a828a613501565b9150613ba582613762565b9150613bb18289613501565b9150613bbc8261359b565b9150613bc7826135e1565b9150613bd282613785565b9150613bde8288613501565b9150613be98261359b565b9150613bf48261394c565b9150613bff8261366d565b9150613c0b8287613501565b9150613c1682613604565b9150613c2182613929565b9150613c2d8286613501565b9150613c3882613555565b9150613c448285613501565b9150613c4f82613532565b9150613c5a82613690565b9150613c668284613501565b9150613c71826137cb565b9150613c7c82613857565b9150613c87826137cb565b915081905098975050505050505050565b6000613ca38261389d565b9150613caf8284613501565b915081905092915050565b6000602082019050613ccf60008301846133c3565b92915050565b6000608082019050613cea60008301876133c3565b613cf760208301866133c3565b613d046040830185613b69565b8181036060830152613d168184613456565b905095945050505050565b6000606082019050613d3660008301866133c3565b613d436020830185613b69565b613d506040830184613b69565b949350505050565b60006020820190508181036000830152613d7281846133d2565b905092915050565b6000602082019050613d8f6000830184613447565b92915050565b60006020820190508181036000830152613daf81846134c8565b905092915050565b600060c0820190508181036000830152613dd181896134c8565b90508181036020830152613de581886134c8565b90508181036040830152613df981876134c8565b9050613e086060830186613b69565b613e156080830185613b69565b613e2260a0830184613b69565b979650505050505050565b60006080820190508181036000830152613e4781876134c8565b90508181036020830152613e5b81866134c8565b9050613e6a6040830185613b69565b8181036060830152613e7c81846134c8565b905095945050505050565b60006080820190508181036000830152613ea181876134c8565b90508181036020830152613eb581866134c8565b9050613ec46040830185613b69565b613ed16060830184613b69565b95945050505050565b60006040820190508181036000830152613ef481856134c8565b9050613f036020830184613b69565b9392505050565b60006060820190508181036000830152613f2481866134c8565b9050613f336020830185613b69565b8181036040830152613f4581846134c8565b9050949350505050565b60006020820190508181036000830152613f6881613578565b9050919050565b60006020820190508181036000830152613f88816135be565b9050919050565b60006020820190508181036000830152613fa881613627565b9050919050565b60006020820190508181036000830152613fc88161364a565b9050919050565b60006020820190508181036000830152613fe8816136d6565b9050919050565b60006020820190508181036000830152614008816136f9565b9050919050565b600060208201905081810360008301526140288161371c565b9050919050565b600060208201905081810360008301526140488161373f565b9050919050565b60006020820190508181036000830152614068816137a8565b9050919050565b60006020820190508181036000830152614088816137ee565b9050919050565b600060208201905081810360008301526140a881613811565b9050919050565b600060208201905081810360008301526140c88161387a565b9050919050565b600060208201905081810360008301526140e8816138c0565b9050919050565b60006020820190508181036000830152614108816138e3565b9050919050565b6000602082019050818103600083015261412881613906565b9050919050565b60006020820190508181036000830152614149818461396f565b905092915050565b6000602082019050818103600083015261416b8184613ab0565b905092915050565b60006020820190506141886000830184613b69565b92915050565b600060e0820190506141a3600083018a613b69565b81810360208301526141b581896134c8565b905081810360408301526141c981886134c8565b905081810360608301526141dd81876134c8565b90506141ec6080830186613b69565b6141f960a0830185613b69565b61420660c0830184613b69565b98975050505050505050565b60006040820190506142276000830185613b69565b6142346020830184613b69565b9392505050565b6000614245614256565b9050614251828261451b565b919050565b6000604051905090565b600067ffffffffffffffff82111561427b5761427a614653565b5b61428482614682565b9050602081019050919050565b6000819050602082019050919050565b600081519050919050565b600081519050919050565b600081519050919050565b6000602082019050919050565b600082825260208201905092915050565b600082825260208201905092915050565b600082825260208201905092915050565b600082825260208201905092915050565b600081905092915050565b60006143298261449d565b91506143348361449d565b9250827fffffffffffffffffffffffffffffffffffffffffffffffffffffffffffffffff03821115614369576143686145c6565b5b828201905092915050565b600061437f8261449d565b915061438a8361449d565b92508261439a576143996145f5565b5b828204905092915050565b60006143b08261449d565b91506143bb8361449d565b9250817fffffffffffffffffffffffffffffffffffffffffffffffffffffffffffffffff04831182151516156143f4576143f36145c6565b5b828202905092915050565b600061440a8261449d565b91506144158361449d565b925082821015614428576144276145c6565b5b828203905092915050565b600061443e8261447d565b9050919050565b60008115159050919050565b60007fffffffff0000000000000000000000000000000000000000000000000000000082169050919050565b600073ffffffffffffffffffffffffffffffffffffffff82169050919050565b6000819050919050565b82818337600083830152505050565b60005b838110156144d45780820151818401526020810190506144b9565b838111156144e3576000848401525b50505050565b6000600282049050600182168061450157607f821691505b6020821081141561451557614514614624565b5b50919050565b61452482614682565b810181811067ffffffffffffffff8211171561454357614542614653565b5b80604052505050565b60006145578261449d565b91507fffffffffffffffffffffffffffffffffffffffffffffffffffffffffffffffff82141561458a576145896145c6565b5b600182019050919050565b60006145a08261449d565b91506145ab8361449d565b9250826145bb576145ba6145f5565b5b828206905092915050565b7f4e487b7100000000000000000000000000000000000000000000000000000000600052601160045260246000fd5b7f4e487b7100000000000000000000000000000000000000000000000000000000600052601260045260246000fd5b7f4e487b7100000000000000000000000000000000000000000000000000000000600052602260045260246000fd5b7f4e487b7100000000000000000000000000000000000000000000000000000000600052604160045260246000fd5b6000601f19601f8301169050919050565b7f7d2c000000000000000000000000000000000000000000000000000000000000600082015250565b7f2c226d61785f76616c7565223a00000000000000000000000000000000000000600082015250565b7f4552433732313a207472616e7366657220746f206e6f6e20455243373231526560008201527f63656976657220696d706c656d656e7465720000000000000000000000000000602082015250565b7f222c000000000000000000000000000000000000000000000000000000000000600082015250565b7f4552433732313a20746f6b656e20616c7265616479206d696e74656400000000600082015250565b7f226465736372697074696f6e223a224275696c6473706163652043726561746560008201527f20796f7572206f776e206d696e69207475726e2d6261736564204e465420627260208201527f6f777365722067616d652070726f6a656374222c000000000000000000000000604082015250565b7f227d2c0000000000000000000000000000000000000000000000000000000000600082015250565b7f4552433732313a207472616e7366657220746f20746865207a65726f2061646460008201527f7265737300000000000000000000000000000000000000000000000000000000602082015250565b7f4552433732313a20617070726f766520746f2063616c6c657200000000000000600082015250565b7f7b2274726169745f74797065223a22446578204e756d626572222c226469737060008201527f6c61795f74797065223a226e756d626572222c2276616c7565223a2200000000602082015250565b7f7b2274726169745f74797065223a2241747461636b20444d47222c2276616c7560008201527f65223a0000000000000000000000000000000000000000000000000000000000602082015250565b7f226e616d65223a22000000000000000000000000000000000000000000000000600082015250565b7f4552433732313a206f70657261746f7220717565727920666f72206e6f6e657860008201527f697374656e7420746f6b656e0000000000000000000000000000000000000000602082015250565b7f4552433732313a20617070726f76652063616c6c6572206973206e6f74206f7760008201527f6e6572206e6f7220617070726f76656420666f7220616c6c0000000000000000602082015250565b7f4552433732313a2062616c616e636520717565727920666f7220746865207a6560008201527f726f206164647265737300000000000000000000000000000000000000000000602082015250565b7f4552433732313a206f776e657220717565727920666f72206e6f6e657869737460008201527f656e7420746f6b656e0000000000000000000000000000000000000000000000602082015250565b7f202d202300000000000000000000000000000000000000000000000000000000600082015250565b7f22696d616765223a220000000000000000000000000000000000000000000000600082015250565b7f4552433732313a206d696e7420746f20746865207a65726f2061646472657373600082015250565b7f7d00000000000000000000000000000000000000000000000000000000000000600082015250565b7f4552433732313a20617070726f76656420717565727920666f72206e6f6e657860008201527f697374656e7420746f6b656e0000000000000000000000000000000000000000602082015250565b7f4552433732313a207472616e73666572206f6620746f6b656e2074686174206960008201527f73206e6f74206f776e0000000000000000000000000000000000000000000000602082015250565b7f7b00000000000000000000000000000000000000000000000000000000000000600082015250565b7f5d00000000000000000000000000000000000000000000000000000000000000600082015250565b7f4552433732313a20617070726f76616c20746f2063757272656e74206f776e6560008201527f7200000000000000000000000000000000000000000000000000000000000000602082015250565b7f646174613a6170706c69636174696f6e2f6a736f6e3b6261736536342c000000600082015250565b7f4552433732313a207472616e736665722063616c6c6572206973206e6f74206f60008201527f776e6572206e6f7220617070726f766564000000000000000000000000000000602082015250565b7f4572726f723a20436861726163746572206d757374206861766520485020746f60008201527f2061747461636b2e000000000000000000000000000000000000000000000000602082015250565b7f4572726f723a20426f7373206d757374206861766520485020746f206265206160008201527f747461636b65642e000000000000000000000000000000000000000000000000602082015250565b7f7b2274726169745f74797065223a224850222c2276616c7565223a0000000000600082015250565b7f2261747472696275746573223a5b000000000000000000000000000000000000600082015250565b614df381614433565b8114614dfe57600080fd5b50565b614e0a81614445565b8114614e1557600080fd5b50565b614e2181614451565b8114614e2c57600080fd5b50565b614e388161449d565b8114614e4357600080fd5b5056fe506c617965722061747461636b656420626f73732e204e657720626f73732068703a2025734142434445464748494a4b4c4d4e4f505152535455565758595a6162636465666768696a6b6c6d6e6f707172737475767778797a303132333435363738392b2f426f73732061747461636b656420706c617965722e204e657720706c617965722068703a2025730a0a506c6179657220772f206368617261637465722025732061626f757420746f2061747461636b2e2048617320257320485020616e64202573204144a2646970667358221220a3dd22e432fafb28807c59425051275f4d13d76ed92b2bb5fe988953dcce799864736f6c63430008040033",
  "linkReferences": {},
  "deployedLinkReferences": {}
}